{
  "address": "0xab3fc5eAd56b9916c715119ac5f551CC3aBe2709",
  "abi": [
    {
      "inputs": [
        {
          "internalType": "contract LinkTokenInterface",
          "name": "_link",
          "type": "address"
        },
        {
          "internalType": "address",
          "name": "_registrar",
          "type": "address"
        },
        {
          "internalType": "contract AutomationRegistryInterface",
          "name": "_registry",
          "type": "address"
        },
        {
          "internalType": "contract ISwapRouter",
          "name": "_swapRouter",
          "type": "address"
        },
        {
          "internalType": "address",
          "name": "_stakedToken",
          "type": "address"
        },
        {
          "internalType": "address",
          "name": "_tradedToken",
          "type": "address"
        },
        {
          "internalType": "address",
          "name": "_chainlinkOracle",
          "type": "address"
        },
        {
          "internalType": "bytes32",
          "name": "_getPriceJobId",
          "type": "bytes32"
        },
        {
          "internalType": "uint256",
          "name": "_getPriceFee",
          "type": "uint256"
        },
        {
          "internalType": "address",
          "name": "_truflationOracle",
          "type": "address"
        }
      ],
      "stateMutability": "nonpayable",
      "type": "constructor"
    },
    {
      "inputs": [],
      "name": "AutoApproveDisabled",
      "type": "error"
    },
    {
      "inputs": [
        {
          "internalType": "bytes32",
          "name": "requestId",
          "type": "bytes32"
        }
      ],
      "name": "NoCounterIDAssociated",
      "type": "error"
    },
    {
      "inputs": [
        {
          "internalType": "uint256",
          "name": "currentTimeStamp",
          "type": "uint256"
        },
        {
          "internalType": "uint256",
          "name": "lastTimeStamp",
          "type": "uint256"
        }
      ],
      "name": "UpkeepNotNeeded",
      "type": "error"
    },
    {
      "anonymous": false,
      "inputs": [
        {
          "indexed": true,
          "internalType": "bytes32",
          "name": "id",
          "type": "bytes32"
        }
      ],
      "name": "ChainlinkCancelled",
      "type": "event"
    },
    {
      "anonymous": false,
      "inputs": [
        {
          "indexed": true,
          "internalType": "bytes32",
          "name": "id",
          "type": "bytes32"
        }
      ],
      "name": "ChainlinkFulfilled",
      "type": "event"
    },
    {
      "anonymous": false,
      "inputs": [
        {
          "indexed": true,
          "internalType": "bytes32",
          "name": "id",
          "type": "bytes32"
        }
      ],
      "name": "ChainlinkRequested",
      "type": "event"
    },
    {
      "anonymous": false,
      "inputs": [
        {
          "indexed": false,
          "internalType": "string",
          "name": "url",
          "type": "string"
        }
      ],
      "name": "ConcatenatedURL",
      "type": "event"
    },
    {
      "anonymous": false,
      "inputs": [
        {
          "indexed": false,
          "internalType": "bytes32",
          "name": "requestId",
          "type": "bytes32"
        },
        {
          "indexed": false,
          "internalType": "uint256",
          "name": "price",
          "type": "uint256"
        }
      ],
      "name": "FullfillPrice",
      "type": "event"
    },
    {
      "anonymous": false,
      "inputs": [
        {
          "indexed": false,
          "internalType": "address",
          "name": "sender",
          "type": "address"
        },
        {
          "indexed": false,
          "internalType": "uint256",
          "name": "amountIn",
          "type": "uint256"
        },
        {
          "indexed": false,
          "internalType": "uint256",
          "name": "amountOutMinimum",
          "type": "uint256"
        }
      ],
      "name": "SwapTokensForTokens",
      "type": "event"
    },
    {
      "anonymous": false,
      "inputs": [
        {
          "indexed": true,
          "internalType": "address",
          "name": "receiver",
          "type": "address"
        },
        {
          "indexed": false,
          "internalType": "uint256",
          "name": "amountIn",
          "type": "uint256"
        },
        {
          "indexed": false,
          "internalType": "uint256",
          "name": "amountOut",
          "type": "uint256"
        }
      ],
      "name": "TradeOccured",
      "type": "event"
    },
    {
      "inputs": [
        {
          "internalType": "uint256",
          "name": "",
          "type": "uint256"
        }
      ],
      "name": "botIdToBotObj",
      "outputs": [
        {
          "internalType": "address",
          "name": "owner",
          "type": "address"
        },
        {
          "internalType": "uint256",
          "name": "orderInterval",
          "type": "uint256"
        },
        {
          "internalType": "uint256",
          "name": "orderSize",
          "type": "uint256"
        },
        {
          "internalType": "uint256",
          "name": "lastTimeStamp",
          "type": "uint256"
        },
        {
          "internalType": "uint256",
          "name": "counter",
          "type": "uint256"
        }
      ],
      "stateMutability": "view",
      "type": "function"
    },
    {
      "inputs": [
        {
          "internalType": "uint256",
          "name": "",
          "type": "uint256"
        }
      ],
      "name": "botIdToUpkeepId",
      "outputs": [
        {
          "internalType": "uint256",
          "name": "",
          "type": "uint256"
        }
      ],
      "stateMutability": "view",
      "type": "function"
    },
    {
      "inputs": [],
      "name": "cacheInterval",
      "outputs": [
        {
          "internalType": "uint256",
          "name": "",
          "type": "uint256"
        }
      ],
      "stateMutability": "view",
      "type": "function"
    },
    {
      "inputs": [
        {
          "internalType": "bytes",
          "name": "checkData",
          "type": "bytes"
        }
      ],
      "name": "checkUpkeep",
      "outputs": [
        {
          "internalType": "bool",
          "name": "upkeepNeeded",
          "type": "bool"
        },
        {
          "internalType": "bytes",
          "name": "performData",
          "type": "bytes"
        }
      ],
      "stateMutability": "view",
      "type": "function"
    },
    {
      "inputs": [
        {
          "internalType": "address",
          "name": "owner",
          "type": "address"
        },
        {
          "internalType": "uint256",
          "name": "orderInterval",
          "type": "uint256"
        },
        {
          "internalType": "uint256",
          "name": "orderSize",
          "type": "uint256"
        }
      ],
      "name": "createNewBotInstance",
      "outputs": [
        {
          "internalType": "uint256",
          "name": "",
          "type": "uint256"
        }
      ],
      "stateMutability": "nonpayable",
      "type": "function"
    },
    {
      "inputs": [],
      "name": "feeTier",
      "outputs": [
        {
          "internalType": "uint24",
          "name": "",
          "type": "uint24"
        }
      ],
      "stateMutability": "view",
      "type": "function"
    },
    {
      "inputs": [
        {
          "internalType": "bytes32",
          "name": "_requestId",
          "type": "bytes32"
        },
        {
          "internalType": "uint256",
          "name": "_price",
          "type": "uint256"
        }
      ],
      "name": "fulfillPrice",
      "outputs": [],
      "stateMutability": "nonpayable",
      "type": "function"
    },
    {
      "inputs": [
        {
          "internalType": "uint256",
          "name": "fundingAmount",
          "type": "uint256"
        }
      ],
      "name": "fund",
      "outputs": [],
      "stateMutability": "nonpayable",
      "type": "function"
    },
    {
      "inputs": [
        {
          "internalType": "address",
          "name": "",
          "type": "address"
        }
      ],
      "name": "fundingBalance",
      "outputs": [
        {
          "internalType": "uint256",
          "name": "",
          "type": "uint256"
        }
      ],
      "stateMutability": "view",
      "type": "function"
    },
    {
      "inputs": [],
      "name": "i_getPriceFee",
      "outputs": [
        {
          "internalType": "uint256",
          "name": "",
          "type": "uint256"
        }
      ],
      "stateMutability": "view",
      "type": "function"
    },
    {
      "inputs": [],
      "name": "i_getPriceJobId",
      "outputs": [
        {
          "internalType": "bytes32",
          "name": "",
          "type": "bytes32"
        }
      ],
      "stateMutability": "view",
      "type": "function"
    },
    {
      "inputs": [],
      "name": "i_link",
      "outputs": [
        {
          "internalType": "contract LinkTokenInterface",
          "name": "",
          "type": "address"
        }
      ],
      "stateMutability": "view",
      "type": "function"
    },
    {
      "inputs": [],
      "name": "i_registrar",
      "outputs": [
        {
          "internalType": "address",
          "name": "",
          "type": "address"
        }
      ],
      "stateMutability": "view",
      "type": "function"
    },
    {
      "inputs": [],
      "name": "i_registry",
      "outputs": [
        {
          "internalType": "contract AutomationRegistryInterface",
          "name": "",
          "type": "address"
        }
      ],
      "stateMutability": "view",
      "type": "function"
    },
    {
      "inputs": [],
      "name": "i_stakedToken",
      "outputs": [
        {
          "internalType": "address",
          "name": "",
          "type": "address"
        }
      ],
      "stateMutability": "view",
      "type": "function"
    },
    {
      "inputs": [],
      "name": "i_stakedTokenSymbol",
      "outputs": [
        {
          "internalType": "bytes32",
          "name": "",
          "type": "bytes32"
        }
      ],
      "stateMutability": "view",
      "type": "function"
    },
    {
      "inputs": [],
      "name": "i_swapRouter",
      "outputs": [
        {
          "internalType": "contract ISwapRouter",
          "name": "",
          "type": "address"
        }
      ],
      "stateMutability": "view",
      "type": "function"
    },
    {
      "inputs": [],
      "name": "i_tradedToken",
      "outputs": [
        {
          "internalType": "address",
          "name": "",
          "type": "address"
        }
      ],
      "stateMutability": "view",
      "type": "function"
    },
    {
      "inputs": [],
      "name": "i_tradedTokenSymbol",
      "outputs": [
        {
          "internalType": "bytes32",
          "name": "",
          "type": "bytes32"
        }
      ],
      "stateMutability": "view",
      "type": "function"
    },
    {
      "inputs": [],
      "name": "i_truflationOracle",
      "outputs": [
        {
          "internalType": "address",
          "name": "",
          "type": "address"
        }
      ],
      "stateMutability": "view",
      "type": "function"
    },
    {
      "inputs": [
        {
          "internalType": "bytes",
          "name": "performData",
          "type": "bytes"
        }
      ],
      "name": "performUpkeep",
      "outputs": [],
      "stateMutability": "nonpayable",
      "type": "function"
    },
    {
      "inputs": [
        {
          "internalType": "string",
          "name": "name",
          "type": "string"
        },
        {
          "internalType": "uint32",
          "name": "gasLimit",
          "type": "uint32"
        },
        {
          "internalType": "uint96",
          "name": "fundingAmount",
          "type": "uint96"
        },
        {
          "internalType": "uint256",
          "name": "orderInterval",
          "type": "uint256"
        },
        {
          "internalType": "uint256",
          "name": "orderSize",
          "type": "uint256"
        }
      ],
      "name": "registerNewAutomation",
      "outputs": [],
      "stateMutability": "nonpayable",
      "type": "function"
    },
    {
      "inputs": [
        {
          "internalType": "bytes32",
          "name": "",
          "type": "bytes32"
        }
      ],
      "name": "requestIdToBotId",
      "outputs": [
        {
          "internalType": "uint256",
          "name": "",
          "type": "uint256"
        }
      ],
      "stateMutability": "view",
      "type": "function"
    },
    {
      "inputs": [
        {
          "internalType": "uint256",
          "name": "botId",
          "type": "uint256"
        }
      ],
      "name": "requestPriceAndSwapToken",
      "outputs": [
        {
          "internalType": "bytes32",
          "name": "requestId",
          "type": "bytes32"
        }
      ],
      "stateMutability": "nonpayable",
      "type": "function"
    },
    {
      "inputs": [
        {
          "internalType": "uint256",
          "name": "stakingAmount",
          "type": "uint256"
        }
      ],
      "name": "stake",
      "outputs": [],
      "stateMutability": "nonpayable",
      "type": "function"
    },
    {
      "inputs": [
        {
          "internalType": "address",
          "name": "",
          "type": "address"
        }
      ],
      "name": "stakingBalance",
      "outputs": [
        {
          "internalType": "uint256",
          "name": "",
          "type": "uint256"
        }
      ],
      "stateMutability": "view",
      "type": "function"
    },
    {
      "inputs": [],
      "name": "swapSlippage",
      "outputs": [
        {
          "internalType": "uint8",
          "name": "",
          "type": "uint8"
        }
      ],
      "stateMutability": "view",
      "type": "function"
    },
    {
      "inputs": [
        {
          "internalType": "address",
          "name": "receiver",
          "type": "address"
        },
        {
          "internalType": "uint256",
          "name": "amountIn",
          "type": "uint256"
        },
        {
          "internalType": "uint256",
          "name": "amountOutMinimum",
          "type": "uint256"
        }
      ],
      "name": "swapTokensForTokens",
      "outputs": [],
      "stateMutability": "nonpayable",
      "type": "function"
    },
    {
      "inputs": [
        {
          "internalType": "address",
          "name": "",
          "type": "address"
        }
      ],
      "name": "tradingBalance",
      "outputs": [
        {
          "internalType": "uint256",
          "name": "",
          "type": "uint256"
        }
      ],
      "stateMutability": "view",
      "type": "function"
    },
    {
      "inputs": [],
      "name": "unstake",
      "outputs": [],
      "stateMutability": "nonpayable",
      "type": "function"
    },
    {
      "inputs": [],
      "name": "withdrawFunds",
      "outputs": [],
      "stateMutability": "nonpayable",
      "type": "function"
    }
  ],
  "transactionHash": "0xb25330d6d5636112d7eeee4dfb5be7aa2d35993a24fd71ba4e18f69031492878",
  "args": [
    "0x326C977E6efc84E512bB9C30f76E30c160eD06FB",
    "0x9806cf6fBc89aBF286e8140C42174B94836e36F2",
    "0x02777053d6764996e594c3E88AF1D58D5363a2e6",
    "0xE592427A0AEce92De3Edee1F18E0157C05861564",
    "0xB4FBF271143F4FBf7B91A5ded31805e42b2208d6",
    "0x1f9840a85d5aF5bf1D1762F925BDADdC4201F984",
    "0xD189e75a64989E4d2cDBAefcDDB4BD931e299121",
    "0x3839613362646238626464623433303861336633336233666432313564613035",
    "100000000000000000",
    "0x0F7C4A8D7e911E6A6d0b3aAAB6a833601ccE65cC"
  ],
  "numDeployments": 6,
  "solcInputHash": "6d892bffdfa0342a860f75a7c515bb92",
  "bytecode": "0x6101c06040526001600555633659d66660e01b600b60006101000a81548163ffffffff021916908360e01c02179055503480156200003c57600080fd5b5060405162005fa238038062005fa28339818101604052810190620000629190620005b8565b60016000819055508973ffffffffffffffffffffffffffffffffffffffff1660808173ffffffffffffffffffffffffffffffffffffffff16815250508873ffffffffffffffffffffffffffffffffffffffff1660a08173ffffffffffffffffffffffffffffffffffffffff16815250508773ffffffffffffffffffffffffffffffffffffffff1660c08173ffffffffffffffffffffffffffffffffffffffff16815250508673ffffffffffffffffffffffffffffffffffffffff1660e08173ffffffffffffffffffffffffffffffffffffffff16815250508573ffffffffffffffffffffffffffffffffffffffff166101008173ffffffffffffffffffffffffffffffffffffffff16815250508473ffffffffffffffffffffffffffffffffffffffff166101208173ffffffffffffffffffffffffffffffffffffffff16815250506200022b8673ffffffffffffffffffffffffffffffffffffffff166395d89b416040518163ffffffff1660e01b8152600401600060405180830381865afa158015620001f4573d6000803e3d6000fd5b505050506040513d6000823e3d601f19601f820116820180604052508101906200021f91906200082d565b6200034760201b60201c565b6101408181525050620002ba8573ffffffffffffffffffffffffffffffffffffffff166395d89b416040518163ffffffff1660e01b8152600401600060405180830381865afa15801562000283573d6000803e3d6000fd5b505050506040513d6000823e3d601f19601f82011682018060405250810190620002ae91906200082d565b6200034760201b60201c565b6101608181525050620002d38a6200037260201b60201c565b620002e484620003b660201b60201c565b826101808181525050816101a0818152505080600f60006101000a81548173ffffffffffffffffffffffffffffffffffffffff021916908373ffffffffffffffffffffffffffffffffffffffff160217905550505050505050505050506200087e565b600080829050600081510362000364576000801b9150506200036d565b60208301519150505b919050565b80600360006101000a81548173ffffffffffffffffffffffffffffffffffffffff021916908373ffffffffffffffffffffffffffffffffffffffff16021790555050565b80600460006101000a81548173ffffffffffffffffffffffffffffffffffffffff021916908373ffffffffffffffffffffffffffffffffffffffff16021790555050565b6000604051905090565b600080fd5b600080fd5b600073ffffffffffffffffffffffffffffffffffffffff82169050919050565b60006200043b826200040e565b9050919050565b60006200044f826200042e565b9050919050565b620004618162000442565b81146200046d57600080fd5b50565b600081519050620004818162000456565b92915050565b62000492816200042e565b81146200049e57600080fd5b50565b600081519050620004b28162000487565b92915050565b6000620004c5826200042e565b9050919050565b620004d781620004b8565b8114620004e357600080fd5b50565b600081519050620004f781620004cc565b92915050565b60006200050a826200042e565b9050919050565b6200051c81620004fd565b81146200052857600080fd5b50565b6000815190506200053c8162000511565b92915050565b6000819050919050565b620005578162000542565b81146200056357600080fd5b50565b60008151905062000577816200054c565b92915050565b6000819050919050565b62000592816200057d565b81146200059e57600080fd5b50565b600081519050620005b28162000587565b92915050565b6000806000806000806000806000806101408b8d031215620005df57620005de62000404565b5b6000620005ef8d828e0162000470565b9a50506020620006028d828e01620004a1565b9950506040620006158d828e01620004e6565b9850506060620006288d828e016200052b565b97505060806200063b8d828e01620004a1565b96505060a06200064e8d828e01620004a1565b95505060c0620006618d828e01620004a1565b94505060e0620006748d828e0162000566565b935050610100620006888d828e01620005a1565b9250506101206200069c8d828e01620004a1565b9150509295989b9194979a5092959850565b600080fd5b600080fd5b6000601f19601f8301169050919050565b7f4e487b7100000000000000000000000000000000000000000000000000000000600052604160045260246000fd5b6200070382620006b8565b810181811067ffffffffffffffff82111715620007255762000724620006c9565b5b80604052505050565b60006200073a620003fa565b9050620007488282620006f8565b919050565b600067ffffffffffffffff8211156200076b576200076a620006c9565b5b6200077682620006b8565b9050602081019050919050565b60005b83811015620007a357808201518184015260208101905062000786565b60008484015250505050565b6000620007c6620007c0846200074d565b6200072e565b905082815260208101848484011115620007e557620007e4620006b3565b5b620007f284828562000783565b509392505050565b600082601f830112620008125762000811620006ae565b5b815162000824848260208601620007af565b91505092915050565b60006020828403121562000846576200084562000404565b5b600082015167ffffffffffffffff81111562000867576200086662000409565b5b6200087584828501620007fa565b91505092915050565b60805160a05160c05160e05161010051610120516101405161016051610180516101a05161561c6200098660003960008181610a6e01528181610f2001526118340152600081816116d7015261187c0152600081816116aa0152611f1c01526000818161167d0152611f40015260008181610a2601526121340152600081816109cf01528181610a0201528181611ddc015281816120a201526120f801526000818161103e015281816120c301526121ca01526000818161088f01528181611255015281816114f101526115c3015260008181610a4a015261143c01526000818161074801528181610bd401528181611400015281816118a00152611faa015261561c6000f3fe608060405234801561001057600080fd5b50600436106101e55760003560e01c80637080bf471161010f578063a694fc3a116100a2578063ac8fda1011610071578063ac8fda101461058b578063b48c423b146105a9578063ca1d209d146105c7578063f3b4a67f146105e3576101e5565b8063a694fc3a146104db578063a776fb94146104f7578063aa0ff6801461052b578063ab4578751461055b576101e5565b80637d253aff116100de5780637d253aff146104415780638cdec8221461045f5780638d2a648d1461048f57806390c66660146104ab576101e5565b80637080bf47146103b957806372f5d98a146103d55780637556dfd3146103f357806379851a3414610423576101e5565b806339b394061161018757806345bc78ab1161015657806345bc78ab1461031c57806358fb80541461034c5780635a2b81f51461036a5780636e04ff0d14610388576101e5565b806339b39406146102a6578063442b1278146102c457806345150973146102e25780634585e33b14610300576101e5565b80632a46046a116101c35780632a46046a146102305780632a663606146102605780632def66201461027e5780632e276ffd14610288576101e5565b8063081f4c31146101ea5780631aedeabe1461020857806324600fc314610226575b600080fd5b6101f26105ff565b6040516101ff91906135c0565b60405180910390f35b610210610625565b60405161021d91906135f7565b60405180910390f35b61022e61062a565b005b61024a60048036038101906102459190613688565b610779565b60405161025791906136ea565b60405180910390f35b61026861088d565b6040516102759190613764565b60405180910390f35b6102866108b1565b005b610290610a00565b60405161029d91906135c0565b60405180910390f35b6102ae610a24565b6040516102bb91906135c0565b60405180910390f35b6102cc610a48565b6040516102d991906135c0565b60405180910390f35b6102ea610a6c565b6040516102f791906136ea565b60405180910390f35b61031a600480360381019061031591906137e4565b610a90565b005b61033660048036038101906103319190613831565b611024565b60405161034391906136ea565b60405180910390f35b61035461103c565b604051610361919061387f565b60405180910390f35b610372611060565b60405161037f91906136ea565b60405180910390f35b6103a2600480360381019061039d91906137e4565b611067565b6040516103b0929190613945565b60405180910390f35b6103d360048036038101906103ce9190613b25565b6110d8565b005b6103dd61166f565b6040516103ea9190613bda565b60405180910390f35b61040d60048036038101906104089190613bf5565b611675565b60405161041a9190613c3b565b60405180910390f35b61042b61187a565b6040516104389190613c3b565b60405180910390f35b61044961189e565b6040516104569190613c77565b60405180910390f35b61047960048036038101906104749190613cbe565b6118c2565b60405161048691906136ea565b60405180910390f35b6104a960048036038101906104a49190613ceb565b6118da565b005b6104c560048036038101906104c09190613bf5565b611d7c565b6040516104d291906136ea565b60405180910390f35b6104f560048036038101906104f09190613bf5565b611d94565b005b610511600480360381019061050c9190613bf5565b611e94565b604051610522959493929190613d2b565b60405180910390f35b61054560048036038101906105409190613831565b611eea565b60405161055291906136ea565b60405180910390f35b61057560048036038101906105709190613831565b611f02565b60405161058291906136ea565b60405180910390f35b610593611f1a565b6040516105a09190613c3b565b60405180910390f35b6105b1611f3e565b6040516105be9190613c3b565b60405180910390f35b6105e160048036038101906105dc9190613bf5565b611f62565b005b6105fd60048036038101906105f89190613688565b612062565b005b600f60009054906101000a900473ffffffffffffffffffffffffffffffffffffffff1681565b600a81565b60026000540361066f576040517f08c379a000000000000000000000000000000000000000000000000000000000815260040161066690613ddb565b60405180910390fd5b60026000819055506000600e60003373ffffffffffffffffffffffffffffffffffffffff1673ffffffffffffffffffffffffffffffffffffffff168152602001908152602001600020549050600081116106fe576040517f08c379a00000000000000000000000000000000000000000000000000000000081526004016106f590613e6d565b60405180910390fd5b6000600e60003373ffffffffffffffffffffffffffffffffffffffff1673ffffffffffffffffffffffffffffffffffffffff1681526020019081526020016000208190555061076e7f000000000000000000000000000000000000000000000000000000000000000033836123d9565b506001600081905550565b600080610786600761252e565b9050610792600761253c565b61079a6134b3565b85816000019073ffffffffffffffffffffffffffffffffffffffff16908173ffffffffffffffffffffffffffffffffffffffff16815250508481602001818152505083816040018181525050428160600181815250506000816080018181525050806008600084815260200190815260200160002060008201518160000160006101000a81548173ffffffffffffffffffffffffffffffffffffffff021916908373ffffffffffffffffffffffffffffffffffffffff1602179055506020820151816001015560408201518160020155606082015181600301556080820151816004015590505081925050509392505050565b7f000000000000000000000000000000000000000000000000000000000000000081565b6002600054036108f6576040517f08c379a00000000000000000000000000000000000000000000000000000000081526004016108ed90613ddb565b60405180910390fd5b60026000819055506000600c60003373ffffffffffffffffffffffffffffffffffffffff1673ffffffffffffffffffffffffffffffffffffffff16815260200190815260200160002054905060008111610985576040517f08c379a000000000000000000000000000000000000000000000000000000000815260040161097c90613eff565b60405180910390fd5b6000600c60003373ffffffffffffffffffffffffffffffffffffffff1673ffffffffffffffffffffffffffffffffffffffff168152602001908152602001600020819055506109f57f000000000000000000000000000000000000000000000000000000000000000033836123d9565b506001600081905550565b7f000000000000000000000000000000000000000000000000000000000000000081565b7f000000000000000000000000000000000000000000000000000000000000000081565b7f000000000000000000000000000000000000000000000000000000000000000081565b7f000000000000000000000000000000000000000000000000000000000000000081565b60008282810190610aa19190613bf5565b90506000600860008381526020019081526020016000209050610ac382612552565b610b0a574281600301546040517fa7586210000000000000000000000000000000000000000000000000000000008152600401610b01929190613f1f565b60405180910390fd5b42816003018190555060018160040154610b249190613f77565b816004018190555062015180600f60009054906101000a900473ffffffffffffffffffffffffffffffffffffffff1673ffffffffffffffffffffffffffffffffffffffff16633f3b3b276040518163ffffffff1660e01b8152600401602060405180830381865afa158015610b9d573d6000803e3d6000fd5b505050506040513d601f19601f82011682018060405250810190610bc19190613fc0565b42610bcc9190613fed565b1115610f1e577f000000000000000000000000000000000000000000000000000000000000000073ffffffffffffffffffffffffffffffffffffffff1663095ea7b3600f60009054906101000a900473ffffffffffffffffffffffffffffffffffffffff16600f60009054906101000a900473ffffffffffffffffffffffffffffffffffffffff1673ffffffffffffffffffffffffffffffffffffffff1663ddca3f436040518163ffffffff1660e01b8152600401602060405180830381865afa158015610c9e573d6000803e3d6000fd5b505050506040513d601f19601f82011682018060405250810190610cc29190613fc0565b6040518363ffffffff1660e01b8152600401610cdf929190614021565b6020604051808303816000875af1158015610cfe573d6000803e3d6000fd5b505050506040513d601f19601f82011682018060405250810190610d229190614076565b50600f60009054906101000a900473ffffffffffffffffffffffffffffffffffffffff1673ffffffffffffffffffffffffffffffffffffffff1663ddca3f436040518163ffffffff1660e01b8152600401602060405180830381865afa158015610d90573d6000803e3d6000fd5b505050506040513d601f19601f82011682018060405250810190610db49190613fc0565b600e60008360000160009054906101000a900473ffffffffffffffffffffffffffffffffffffffff1673ffffffffffffffffffffffffffffffffffffffff1673ffffffffffffffffffffffffffffffffffffffff16815260200190815260200160002054610e229190613fed565b600e60008360000160009054906101000a900473ffffffffffffffffffffffffffffffffffffffff1673ffffffffffffffffffffffffffffffffffffffff1673ffffffffffffffffffffffffffffffffffffffff16815260200190815260200160002081905550600f60009054906101000a900473ffffffffffffffffffffffffffffffffffffffff1673ffffffffffffffffffffffffffffffffffffffff16639e1c5f1e6040518163ffffffff1660e01b81526004016020604051808303816000875af1158015610ef8573d6000803e3d6000fd5b505050506040513d601f19601f82011682018060405250810190610f1c91906140b8565b505b7f0000000000000000000000000000000000000000000000000000000000000000600e60008360000160009054906101000a900473ffffffffffffffffffffffffffffffffffffffff1673ffffffffffffffffffffffffffffffffffffffff1673ffffffffffffffffffffffffffffffffffffffff16815260200190815260200160002054610fad9190613fed565b600e60008360000160009054906101000a900473ffffffffffffffffffffffffffffffffffffffff1673ffffffffffffffffffffffffffffffffffffffff1673ffffffffffffffffffffffffffffffffffffffff1681526020019081526020016000208190555061101d82611675565b5050505050565b600c6020528060005260406000206000915090505481565b7f000000000000000000000000000000000000000000000000000000000000000081565b6201518081565b600060606000848481019061107c9190613bf5565b905061108781612552565b925084848080601f016020809104026020016040519081016040528093929190818152602001838380828437600081840152601f19601f820116905080830192505050505050509150509250929050565b674563918244f40000836bffffffffffffffffffffffff161015611131576040517f08c379a000000000000000000000000000000000000000000000000000000000815260040161112890614131565b60405180910390fd5b603c821015611175576040517f08c379a000000000000000000000000000000000000000000000000000000000815260040161116c906141c3565b60405180910390fd5b655af3107a40008110156111be576040517f08c379a00000000000000000000000000000000000000000000000000000000081526004016111b590614255565b60405180910390fd5b826bffffffffffffffffffffffff16600e60003373ffffffffffffffffffffffffffffffffffffffff1673ffffffffffffffffffffffffffffffffffffffff16815260200190815260200160002054101561124e576040517f08c379a0000000000000000000000000000000000000000000000000000000008152600401611245906142e7565b60405180910390fd5b60008060007f000000000000000000000000000000000000000000000000000000000000000073ffffffffffffffffffffffffffffffffffffffff16631865c57d6040518163ffffffff1660e01b8152600401600060405180830381865afa1580156112be573d6000803e3d6000fd5b505050506040513d6000823e3d601f19601f820116820180604052508101906112e7919061460e565b9250925092506000836000015163ffffffff1690506000611309338888610779565b905060008160405160200161131e91906146a0565b604051602081830303815290604052905060008b308c33858e6000306040516020016113519897969594939291906147a4565b6040516020818303038152906040529050896bffffffffffffffffffffffff16600e60003373ffffffffffffffffffffffffffffffffffffffff1673ffffffffffffffffffffffffffffffffffffffff168152602001908152602001600020546113bb9190613fed565b600e60003373ffffffffffffffffffffffffffffffffffffffff1673ffffffffffffffffffffffffffffffffffffffff168152602001908152602001600020819055507f000000000000000000000000000000000000000000000000000000000000000073ffffffffffffffffffffffffffffffffffffffff16634000aea07f00000000000000000000000000000000000000000000000000000000000000008c600b60009054906101000a900460e01b8560405160200161147e9291906148cd565b6040516020818303038152906040526040518463ffffffff1660e01b81526004016114ab93929190614926565b6020604051808303816000875af11580156114ca573d6000803e3d6000fd5b505050506040513d601f19601f820116820180604052508101906114ee9190614076565b507f000000000000000000000000000000000000000000000000000000000000000073ffffffffffffffffffffffffffffffffffffffff16631865c57d6040518163ffffffff1660e01b8152600401600060405180830381865afa15801561155a573d6000803e3d6000fd5b505050506040513d6000823e3d601f19601f82011682018060405250810190611583919061460e565b8097508198508299505050506000876000015163ffffffff1690506001856115ab9190613f77565b810361162e5760006001436115c09190613fed565b407f0000000000000000000000000000000000000000000000000000000000000000876040516020016115f593929190614a03565b6040516020818303038152906040528051906020012060001c905080600960008781526020019081526020016000208190555050611660565b6040517f6874c3d400000000000000000000000000000000000000000000000000000000815260040160405180910390fd5b50505050505050505050505050565b610bb881565b6000806116a17f000000000000000000000000000000000000000000000000000000000000000061266c565b905060006116ce7f000000000000000000000000000000000000000000000000000000000000000061266c565b905060006117047f000000000000000000000000000000000000000000000000000000000000000030638d2a648d60e01b612807565b90506117716040518060400160405280600381526020017f67657400000000000000000000000000000000000000000000000000000000008152508484604051602001611752929190614b86565b604051602081830303815290604052836128389092919063ffffffff16565b6117dc6040518060400160405280600481526020017f706174680000000000000000000000000000000000000000000000000000000081525084846040516020016117bd929190614caf565b604051602081830303815290604052836128389092919063ffffffff16565b61182e6040518060400160405280600581526020017f74696d6573000000000000000000000000000000000000000000000000000000815250670de0b6b3a76400008361286b9092919063ffffffff16565b611858817f000000000000000000000000000000000000000000000000000000000000000061289e565b935084600a600086815260200190815260200160002081905550505050919050565b7f000000000000000000000000000000000000000000000000000000000000000081565b7f000000000000000000000000000000000000000000000000000000000000000081565b600a6020528060005260406000206000915090505481565b816006600082815260200190815260200160002060009054906101000a900473ffffffffffffffffffffffffffffffffffffffff1673ffffffffffffffffffffffffffffffffffffffff163373ffffffffffffffffffffffffffffffffffffffff161461197c576040517f08c379a000000000000000000000000000000000000000000000000000000000815260040161197390614d66565b60405180910390fd5b6006600082815260200190815260200160002060006101000a81549073ffffffffffffffffffffffffffffffffffffffff0219169055807f7cc135e0cebb02c3480ae5d74d377283180a2601f8f644edf7987b009316c63a60405160405180910390a27fb96e12cc3e842b19473cb569fb361ed37ce916cd6870f81d591b73828908964c8383604051611a10929190614d86565b60405180910390a16000600a60008581526020019081526020016000205490506000600860008381526020019081526020016000206040518060a00160405290816000820160009054906101000a900473ffffffffffffffffffffffffffffffffffffffff1673ffffffffffffffffffffffffffffffffffffffff1673ffffffffffffffffffffffffffffffffffffffff16815260200160018201548152602001600282015481526020016003820154815260200160048201548152505090506000816040015103611b1957846040517f5d544bc2000000000000000000000000000000000000000000000000000000008152600401611b109190613c3b565b60405180910390fd5b6000670de0b6b3a7640000826040015186611b349190614daf565b611b3e9190614e20565b905060006064600a60ff1683611b549190614daf565b611b5e9190614e20565b82611b699190613fed565b90506000600f60009054906101000a900473ffffffffffffffffffffffffffffffffffffffff1673ffffffffffffffffffffffffffffffffffffffff1663be0522e06040518163ffffffff1660e01b8152600401602060405180830381865afa158015611bda573d6000803e3d6000fd5b505050506040513d601f19601f82011682018060405250810190611bfe9190614e87565b905060008082138015611c1957506802b5e3af16b188000082125b15611c585768056bc75e2d63100000828660400151611c389190614daf565b611c429190614e20565b8560400151611c519190613f77565b9050611ccf565b600082128015611c8757507ffffffffffffffffffffffffffffffffffffffffffffffffd4a1c50e94e78000082135b15611cc65768056bc75e2d63100000828660400151611ca69190614daf565b611cb09190614e20565b8560400151611cbf9190613fed565b9050611cce565b846040015190505b5b80600c6000876000015173ffffffffffffffffffffffffffffffffffffffff1673ffffffffffffffffffffffffffffffffffffffff168152602001908152602001600020541015611d6157600c6000866000015173ffffffffffffffffffffffffffffffffffffffff1673ffffffffffffffffffffffffffffffffffffffff1681526020019081526020016000205490505b611d718560000151826000612062565b505050505050505050565b60096020528060005260406000206000915090505481565b60008111611dd7576040517f08c379a0000000000000000000000000000000000000000000000000000000008152600401611dce90614f00565b60405180910390fd5b611e037f00000000000000000000000000000000000000000000000000000000000000003330846128d5565b80600c60003373ffffffffffffffffffffffffffffffffffffffff1673ffffffffffffffffffffffffffffffffffffffff16815260200190815260200160002054611e4e9190613f77565b600c60003373ffffffffffffffffffffffffffffffffffffffff1673ffffffffffffffffffffffffffffffffffffffff1681526020019081526020016000208190555050565b60086020528060005260406000206000915090508060000160009054906101000a900473ffffffffffffffffffffffffffffffffffffffff16908060010154908060020154908060030154908060040154905085565b600e6020528060005260406000206000915090505481565b600d6020528060005260406000206000915090505481565b7f000000000000000000000000000000000000000000000000000000000000000081565b7f000000000000000000000000000000000000000000000000000000000000000081565b60008111611fa5576040517f08c379a0000000000000000000000000000000000000000000000000000000008152600401611f9c90614f00565b60405180910390fd5b611fd17f00000000000000000000000000000000000000000000000000000000000000003330846128d5565b80600e60003373ffffffffffffffffffffffffffffffffffffffff1673ffffffffffffffffffffffffffffffffffffffff1681526020019081526020016000205461201c9190613f77565b600e60003373ffffffffffffffffffffffffffffffffffffffff1673ffffffffffffffffffffffffffffffffffffffff1681526020019081526020016000208190555050565b7ff4ec58065cfc6a2c8ef3beb140ad8d5a657958bf8a1ddd9ba948db8c8a1f21aa83838360405161209593929190614f20565b60405180910390a16120e87f00000000000000000000000000000000000000000000000000000000000000007f000000000000000000000000000000000000000000000000000000000000000084612a2d565b60006040518061010001604052807f000000000000000000000000000000000000000000000000000000000000000073ffffffffffffffffffffffffffffffffffffffff1681526020017f000000000000000000000000000000000000000000000000000000000000000073ffffffffffffffffffffffffffffffffffffffff168152602001610bb862ffffff1681526020018573ffffffffffffffffffffffffffffffffffffffff168152602001428152602001848152602001838152602001600073ffffffffffffffffffffffffffffffffffffffff16815250905060007f000000000000000000000000000000000000000000000000000000000000000073ffffffffffffffffffffffffffffffffffffffff1663414bf389836040518263ffffffff1660e01b81526004016122219190615035565b6020604051808303816000875af1158015612240573d6000803e3d6000fd5b505050506040513d601f19601f820116820180604052508101906122649190613fc0565b905083600c60008773ffffffffffffffffffffffffffffffffffffffff1673ffffffffffffffffffffffffffffffffffffffff168152602001908152602001600020546122b19190613fed565b600c60008773ffffffffffffffffffffffffffffffffffffffff1673ffffffffffffffffffffffffffffffffffffffff1681526020019081526020016000208190555080600d60008773ffffffffffffffffffffffffffffffffffffffff1673ffffffffffffffffffffffffffffffffffffffff1681526020019081526020016000205461233f9190613f77565b600d60008773ffffffffffffffffffffffffffffffffffffffff1673ffffffffffffffffffffffffffffffffffffffff168152602001908152602001600020819055508473ffffffffffffffffffffffffffffffffffffffff167fbdf4670c78c4b5249397eb82e2e0e8ba29705683621ddb1c4742f24827ca807c85836040516123ca929190613f1f565b60405180910390a25050505050565b6000808473ffffffffffffffffffffffffffffffffffffffff1663a9059cbb60e01b858560405160240161240e929190614021565b604051602081830303815290604052907bffffffffffffffffffffffffffffffffffffffffffffffffffffffff19166020820180517bffffffffffffffffffffffffffffffffffffffffffffffffffffffff83818316178352505050506040516124789190615051565b6000604051808303816000865af19150503d80600081146124b5576040519150601f19603f3d011682016040523d82523d6000602084013e6124ba565b606091505b50915091508180156124e857506000815114806124e75750808060200190518101906124e69190614076565b5b5b612527576040517f08c379a000000000000000000000000000000000000000000000000000000000815260040161251e906150b4565b60405180910390fd5b5050505050565b600081600001549050919050565b6001816000016000828254019250508190555050565b600080600860008481526020019081526020016000206040518060a00160405290816000820160009054906101000a900473ffffffffffffffffffffffffffffffffffffffff1673ffffffffffffffffffffffffffffffffffffffff1673ffffffffffffffffffffffffffffffffffffffff16815260200160018201548152602001600282015481526020016003820154815260200160048201548152505090506000816020015182606001514261260a9190613fed565b119050600080600c6000856000015173ffffffffffffffffffffffffffffffffffffffff1673ffffffffffffffffffffffffffffffffffffffff16815260200190815260200160002054149050818015612662575080155b9350505050919050565b606060005b60208160ff161080156126c35750600060f81b838260ff166020811061269a576126996150d4565b5b1a60f81b7effffffffffffffffffffffffffffffffffffffffffffffffffffffffffffff191614155b156126db5780806126d390615103565b915050612671565b60008160ff1667ffffffffffffffff8111156126fa576126f961397a565b5b6040519080825280601f01601f19166020018201604052801561272c5781602001600182028036833780820191505090505b509050600091505b60208260ff161080156127865750600060f81b848360ff166020811061275d5761275c6150d4565b5b1a60f81b7effffffffffffffffffffffffffffffffffffffffffffffffffffffffffffff191614155b156127fd57838260ff16602081106127a1576127a06150d4565b5b1a60f81b818360ff16815181106127bb576127ba6150d4565b5b60200101907effffffffffffffffffffffffffffffffffffffffffffffffffffffffffffff1916908160001a90535081806127f590615103565b925050612734565b8092505050919050565b61280f6134f8565b6128176134f8565b61282e85858584612b82909392919063ffffffff16565b9150509392505050565b61284f828460800151612c3290919063ffffffff16565b612866818460800151612c3290919063ffffffff16565b505050565b612882828460800151612c3290919063ffffffff16565b612899818460800151612c5790919063ffffffff16565b505050565b60006128cd600460009054906101000a900473ffffffffffffffffffffffffffffffffffffffff168484612d04565b905092915050565b6000808573ffffffffffffffffffffffffffffffffffffffff166323b872dd60e01b86868660405160240161290c9392919061512c565b604051602081830303815290604052907bffffffffffffffffffffffffffffffffffffffffffffffffffffffff19166020820180517bffffffffffffffffffffffffffffffffffffffffffffffffffffffff83818316178352505050506040516129769190615051565b6000604051808303816000865af19150503d80600081146129b3576040519150601f19603f3d011682016040523d82523d6000602084013e6129b8565b606091505b50915091508180156129e657506000815114806129e55750808060200190518101906129e49190614076565b5b5b612a25576040517f08c379a0000000000000000000000000000000000000000000000000000000008152600401612a1c906151af565b60405180910390fd5b505050505050565b6000808473ffffffffffffffffffffffffffffffffffffffff1663095ea7b360e01b8585604051602401612a62929190614021565b604051602081830303815290604052907bffffffffffffffffffffffffffffffffffffffffffffffffffffffff19166020820180517bffffffffffffffffffffffffffffffffffffffffffffffffffffffff8381831617835250505050604051612acc9190615051565b6000604051808303816000865af19150503d8060008114612b09576040519150601f19603f3d011682016040523d82523d6000602084013e612b0e565b606091505b5091509150818015612b3c5750600081511480612b3b575080806020019051810190612b3a9190614076565b5b5b612b7b576040517f08c379a0000000000000000000000000000000000000000000000000000000008152600401612b729061521b565b60405180910390fd5b5050505050565b612b8a6134f8565b612b9a8560800151610100612dd0565b508385600001818152505082856020019073ffffffffffffffffffffffffffffffffffffffff16908173ffffffffffffffffffffffffffffffffffffffff16815250508185604001907bffffffffffffffffffffffffffffffffffffffffffffffffffffffff191690817bffffffffffffffffffffffffffffffffffffffffffffffffffffffff191681525050849050949350505050565b612c3f8260038351612e3a565b612c528183612fbf90919063ffffffff16565b505050565b7fffffffffffffffffffffffffffffffffffffffffffffffff0000000000000000811215612c8e57612c898282612fe1565b612d00565b67ffffffffffffffff811315612cad57612ca88282613058565b612cff565b60008112612cc657612cc182600083612e3a565b612cfe565b612cfd826001837fffffffffffffffffffffffffffffffffffffffffffffffffffffffffffffffff612cf8919061523b565b612e3a565b5b5b5b5050565b6000806005549050600181612d199190613f77565b6005819055506000634042994660e01b60008087600001513089604001518760018c6080015160000151604051602401612d5a98979695949392919061528d565b604051602081830303815290604052907bffffffffffffffffffffffffffffffffffffffffffffffffffffffff19166020820180517bffffffffffffffffffffffffffffffffffffffffffffffffffffffff83818316178352505050509050612dc5868386846130a4565b925050509392505050565b612dd8613565565b6000602083612de79190615312565b14612e1357602082612df99190615312565b6020612e059190613fed565b82612e109190613f77565b91505b81836020018181525050604051808452600081528281016020016040525082905092915050565b60178167ffffffffffffffff1611612e7157612e6b8160058460ff16901b60ff16178461323990919063ffffffff16565b50612fba565b60ff8167ffffffffffffffff1611612ec757612ea0601860058460ff16901b178461323990919063ffffffff16565b50612ec18167ffffffffffffffff166001856132599092919063ffffffff16565b50612fb9565b61ffff8167ffffffffffffffff1611612f1e57612ef7601960058460ff16901b178461323990919063ffffffff16565b50612f188167ffffffffffffffff166002856132599092919063ffffffff16565b50612fb8565b63ffffffff8167ffffffffffffffff1611612f7757612f50601a60058460ff16901b178461323990919063ffffffff16565b50612f718167ffffffffffffffff166004856132599092919063ffffffff16565b50612fb7565b612f94601b60058460ff16901b178461323990919063ffffffff16565b50612fb58167ffffffffffffffff166008856132599092919063ffffffff16565b505b5b5b5b505050565b612fc7613565565b612fd98384600001515184855161327b565b905092915050565b612fff60036005600660ff16901b178361323990919063ffffffff16565b5061305482827fffffffffffffffffffffffffffffffffffffffffffffffffffffffffffffffff613030919061523b565b60405160200161304091906136ea565b60405160208183030381529060405261336a565b5050565b61307660026005600660ff16901b178361323990919063ffffffff16565b506130a0828260405160200161308c91906136ea565b60405160208183030381529060405261336a565b5050565b600030846040516020016130b992919061536c565b604051602081830303815290604052805190602001209050846006600083815260200190815260200160002060006101000a81548173ffffffffffffffffffffffffffffffffffffffff021916908373ffffffffffffffffffffffffffffffffffffffff160217905550807fb5e6e01e79f91267dc17b4e6314d5d4d03593d2ceee0fbb452b750bd70ea5af960405160405180910390a2600360009054906101000a900473ffffffffffffffffffffffffffffffffffffffff1673ffffffffffffffffffffffffffffffffffffffff16634000aea08685856040518463ffffffff1660e01b81526004016131af93929190615398565b6020604051808303816000875af11580156131ce573d6000803e3d6000fd5b505050506040513d601f19601f820116820180604052508101906131f29190614076565b613231576040517f08c379a000000000000000000000000000000000000000000000000000000000815260040161322890615448565b60405180910390fd5b949350505050565b613241613565565b613251838460000151518461338f565b905092915050565b613261613565565b6132728485600001515185856133e5565b90509392505050565b613283613565565b825182111561329157600080fd5b846020015182856132a29190613f77565b11156132d7576132d68560026132c7886020015188876132c29190613f77565b613473565b6132d19190614daf565b61348f565b5b6000808651805187602083010193508088870111156132f65787860182525b60208701925050505b6020841061333d57805182526020826133189190613f77565b91506020816133279190613f77565b90506020846133369190613fed565b93506132ff565b60006001856020036101000a03905080198251168184511681811785525050508692505050949350505050565b6133778260028351612e3a565b61338a8183612fbf90919063ffffffff16565b505050565b613397613565565b836020015183106133bd576133bc84600286602001516133b79190614daf565b61348f565b5b835180516020858301018481538186036133d8576001820183525b5050508390509392505050565b6133ed613565565b846020015184836133fe9190613f77565b11156134265761342585600286856134169190613f77565b6134209190614daf565b61348f565b5b6000600183610100613438919061559b565b6134429190613fed565b905085518386820101858319825116178152815185880111156134655784870182525b505085915050949350505050565b60008183111561348557829050613489565b8190505b92915050565b6000826000015190506134a28383612dd0565b506134ad8382612fbf565b50505050565b6040518060a00160405280600073ffffffffffffffffffffffffffffffffffffffff168152602001600081526020016000815260200160008152602001600081525090565b6040518060a0016040528060008019168152602001600073ffffffffffffffffffffffffffffffffffffffff16815260200160007bffffffffffffffffffffffffffffffffffffffffffffffffffffffff191681526020016000815260200161355f613565565b81525090565b604051806040016040528060608152602001600081525090565b600073ffffffffffffffffffffffffffffffffffffffff82169050919050565b60006135aa8261357f565b9050919050565b6135ba8161359f565b82525050565b60006020820190506135d560008301846135b1565b92915050565b600060ff82169050919050565b6135f1816135db565b82525050565b600060208201905061360c60008301846135e8565b92915050565b6000604051905090565b600080fd5b600080fd5b61362f8161359f565b811461363a57600080fd5b50565b60008135905061364c81613626565b92915050565b6000819050919050565b61366581613652565b811461367057600080fd5b50565b6000813590506136828161365c565b92915050565b6000806000606084860312156136a1576136a061361c565b5b60006136af8682870161363d565b93505060206136c086828701613673565b92505060406136d186828701613673565b9150509250925092565b6136e481613652565b82525050565b60006020820190506136ff60008301846136db565b92915050565b6000819050919050565b600061372a6137256137208461357f565b613705565b61357f565b9050919050565b600061373c8261370f565b9050919050565b600061374e82613731565b9050919050565b61375e81613743565b82525050565b60006020820190506137796000830184613755565b92915050565b600080fd5b600080fd5b600080fd5b60008083601f8401126137a4576137a361377f565b5b8235905067ffffffffffffffff8111156137c1576137c0613784565b5b6020830191508360018202830111156137dd576137dc613789565b5b9250929050565b600080602083850312156137fb576137fa61361c565b5b600083013567ffffffffffffffff81111561381957613818613621565b5b6138258582860161378e565b92509250509250929050565b6000602082840312156138475761384661361c565b5b60006138558482850161363d565b91505092915050565b600061386982613731565b9050919050565b6138798161385e565b82525050565b60006020820190506138946000830184613870565b92915050565b60008115159050919050565b6138af8161389a565b82525050565b600081519050919050565b600082825260208201905092915050565b60005b838110156138ef5780820151818401526020810190506138d4565b60008484015250505050565b6000601f19601f8301169050919050565b6000613917826138b5565b61392181856138c0565b93506139318185602086016138d1565b61393a816138fb565b840191505092915050565b600060408201905061395a60008301856138a6565b818103602083015261396c818461390c565b90509392505050565b600080fd5b7f4e487b7100000000000000000000000000000000000000000000000000000000600052604160045260246000fd5b6139b2826138fb565b810181811067ffffffffffffffff821117156139d1576139d061397a565b5b80604052505050565b60006139e4613612565b90506139f082826139a9565b919050565b600067ffffffffffffffff821115613a1057613a0f61397a565b5b613a19826138fb565b9050602081019050919050565b82818337600083830152505050565b6000613a48613a43846139f5565b6139da565b905082815260208101848484011115613a6457613a63613975565b5b613a6f848285613a26565b509392505050565b600082601f830112613a8c57613a8b61377f565b5b8135613a9c848260208601613a35565b91505092915050565b600063ffffffff82169050919050565b613abe81613aa5565b8114613ac957600080fd5b50565b600081359050613adb81613ab5565b92915050565b60006bffffffffffffffffffffffff82169050919050565b613b0281613ae1565b8114613b0d57600080fd5b50565b600081359050613b1f81613af9565b92915050565b600080600080600060a08688031215613b4157613b4061361c565b5b600086013567ffffffffffffffff811115613b5f57613b5e613621565b5b613b6b88828901613a77565b9550506020613b7c88828901613acc565b9450506040613b8d88828901613b10565b9350506060613b9e88828901613673565b9250506080613baf88828901613673565b9150509295509295909350565b600062ffffff82169050919050565b613bd481613bbc565b82525050565b6000602082019050613bef6000830184613bcb565b92915050565b600060208284031215613c0b57613c0a61361c565b5b6000613c1984828501613673565b91505092915050565b6000819050919050565b613c3581613c22565b82525050565b6000602082019050613c506000830184613c2c565b92915050565b6000613c6182613731565b9050919050565b613c7181613c56565b82525050565b6000602082019050613c8c6000830184613c68565b92915050565b613c9b81613c22565b8114613ca657600080fd5b50565b600081359050613cb881613c92565b92915050565b600060208284031215613cd457613cd361361c565b5b6000613ce284828501613ca9565b91505092915050565b60008060408385031215613d0257613d0161361c565b5b6000613d1085828601613ca9565b9250506020613d2185828601613673565b9150509250929050565b600060a082019050613d4060008301886135b1565b613d4d60208301876136db565b613d5a60408301866136db565b613d6760608301856136db565b613d7460808301846136db565b9695505050505050565b600082825260208201905092915050565b7f5265656e7472616e637947756172643a207265656e7472616e742063616c6c00600082015250565b6000613dc5601f83613d7e565b9150613dd082613d8f565b602082019050919050565b60006020820190508181036000830152613df481613db8565b9050919050565b7f596f75722066756e64696e672062616c616e636520697320302c20796f75206860008201527f617665206e6f7468696e6720746f207769746864726177000000000000000000602082015250565b6000613e57603783613d7e565b9150613e6282613dfb565b604082019050919050565b60006020820190508181036000830152613e8681613e4a565b9050919050565b7f596f7572207374616b652062616c616e636520697320302c20796f752068617660008201527f65206e6f7468696e6720746f2077697468647261770000000000000000000000602082015250565b6000613ee9603583613d7e565b9150613ef482613e8d565b604082019050919050565b60006020820190508181036000830152613f1881613edc565b9050919050565b6000604082019050613f3460008301856136db565b613f4160208301846136db565b9392505050565b7f4e487b7100000000000000000000000000000000000000000000000000000000600052601160045260246000fd5b6000613f8282613652565b9150613f8d83613652565b9250828201905080821115613fa557613fa4613f48565b5b92915050565b600081519050613fba8161365c565b92915050565b600060208284031215613fd657613fd561361c565b5b6000613fe484828501613fab565b91505092915050565b6000613ff882613652565b915061400383613652565b925082820390508181111561401b5761401a613f48565b5b92915050565b600060408201905061403660008301856135b1565b61404360208301846136db565b9392505050565b6140538161389a565b811461405e57600080fd5b50565b6000815190506140708161404a565b92915050565b60006020828403121561408c5761408b61361c565b5b600061409a84828501614061565b91505092915050565b6000815190506140b281613c92565b92915050565b6000602082840312156140ce576140cd61361c565b5b60006140dc848285016140a3565b91505092915050565b7f6d696e696d756d2066756e64696e67416d6f756e742069732035204c494e4b00600082015250565b600061411b601f83613d7e565b9150614126826140e5565b602082019050919050565b6000602082019050818103600083015261414a8161410e565b9050919050565b7f6d696e696d756d206f72646572496e74657276616c206973203630207365636f60008201527f6e64730000000000000000000000000000000000000000000000000000000000602082015250565b60006141ad602383613d7e565b91506141b882614151565b604082019050919050565b600060208201905081810360008301526141dc816141a0565b9050919050565b7f6d696e696d756d206f7264657253697a6520697320302c30303031207374616b60008201527f6564546f6b656e00000000000000000000000000000000000000000000000000602082015250565b600061423f602783613d7e565b915061424a826141e3565b604082019050919050565b6000602082019050818103600083015261426e81614232565b9050919050565b7f796f75722066756e64696e672062616c616e6365206973203c206f6620796f7560008201527f722066756e64696e67416d6f756e740000000000000000000000000000000000602082015250565b60006142d1602f83613d7e565b91506142dc82614275565b604082019050919050565b60006020820190508181036000830152614300816142c4565b9050919050565b600080fd5b60008151905061431b81613ab5565b92915050565b60008151905061433081613af9565b92915050565b60006080828403121561434c5761434b614307565b5b61435660806139da565b905060006143668482850161430c565b600083015250602061437a84828501614321565b602083015250604061438e84828501613fab565b60408301525060606143a284828501613fab565b60608301525092915050565b6143b781613bbc565b81146143c257600080fd5b50565b6000815190506143d4816143ae565b92915050565b600061ffff82169050919050565b6143f1816143da565b81146143fc57600080fd5b50565b60008151905061440e816143e8565b92915050565b60008151905061442381613626565b92915050565b600061018082840312156144405761443f614307565b5b61444b6101806139da565b9050600061445b8482850161430c565b600083015250602061446f8482850161430c565b6020830152506040614483848285016143c5565b60408301525060606144978482850161430c565b60608301525060806144ab848285016143c5565b60808301525060a06144bf848285016143ff565b60a08301525060c06144d384828501614321565b60c08301525060e06144e78482850161430c565b60e0830152506101006144fc84828501613fab565b6101008301525061012061451284828501613fab565b6101208301525061014061452884828501614414565b6101408301525061016061453e84828501614414565b6101608301525092915050565b600067ffffffffffffffff8211156145665761456561397a565b5b602082029050602081019050919050565b600061458a6145858461454b565b6139da565b905080838252602082019050602084028301858111156145ad576145ac613789565b5b835b818110156145d657806145c28882614414565b8452602084019350506020810190506145af565b5050509392505050565b600082601f8301126145f5576145f461377f565b5b8151614605848260208601614577565b91505092915050565b600080600061022084860312156146285761462761361c565b5b600061463686828701614336565b935050608061464786828701614429565b92505061020084015167ffffffffffffffff81111561466957614668613621565b5b614675868287016145e0565b9150509250925092565b6000819050919050565b61469a61469582613652565b61467f565b82525050565b60006146ac8284614689565b60208201915081905092915050565b600081519050919050565b60006146d1826146bb565b6146db8185613d7e565b93506146eb8185602086016138d1565b6146f4816138fb565b840191505092915050565b7f3078000000000000000000000000000000000000000000000000000000000000600082015250565b6000614735600283613d7e565b9150614740826146ff565b602082019050919050565b61475481613aa5565b82525050565b61476381613ae1565b82525050565b6000819050919050565b600061478e61478961478484614769565b613705565b6135db565b9050919050565b61479e81614773565b82525050565b60006101208201905081810360008301526147bf818b6146c6565b905081810360208301526147d281614728565b90506147e1604083018a6135b1565b6147ee606083018961474b565b6147fb60808301886135b1565b81810360a083015261480d818761390c565b905061481c60c083018661475a565b61482960e0830185614795565b6148376101008301846135b1565b9998505050505050505050565b60007fffffffff0000000000000000000000000000000000000000000000000000000082169050919050565b6000819050919050565b61488b61488682614844565b614870565b82525050565b600081905092915050565b60006148a7826138b5565b6148b18185614891565b93506148c18185602086016138d1565b80840191505092915050565b60006148d9828561487a565b6004820191506148e9828461489c565b91508190509392505050565b600061491061490b61490684613ae1565b613705565b613652565b9050919050565b614920816148f5565b82525050565b600060608201905061493b60008301866135b1565b6149486020830185614917565b818103604083015261495a818461390c565b9050949350505050565b6000819050919050565b61497f61497a82613c22565b614964565b82525050565b60008160601b9050919050565b600061499d82614985565b9050919050565b60006149af82614992565b9050919050565b6149c76149c28261359f565b6149a4565b82525050565b60008160e01b9050919050565b60006149e5826149cd565b9050919050565b6149fd6149f882613aa5565b6149da565b82525050565b6000614a0f828661496e565b602082019150614a1f82856149b6565b601482019150614a2f82846149ec565b600482019150819050949350505050565b600081905092915050565b7f68747470733a2f2f6d696e2d6170692e63727970746f636f6d706172652e636f60008201527f6d2f646174612f70726963656d756c746966756c6c3f6673796d733d00000000602082015250565b6000614aa7603c83614a40565b9150614ab282614a4b565b603c82019050919050565b6000614ac8826146bb565b614ad28185614a40565b9350614ae28185602086016138d1565b80840191505092915050565b7f267473796d733d00000000000000000000000000000000000000000000000000600082015250565b6000614b24600783614a40565b9150614b2f82614aee565b600782019050919050565b7f266578747261506172616d733d57616c6c2d4554480000000000000000000000600082015250565b6000614b70601583614a40565b9150614b7b82614b3a565b601582019050919050565b6000614b9182614a9a565b9150614b9d8285614abd565b9150614ba882614b17565b9150614bb48284614abd565b9150614bbf82614b63565b91508190509392505050565b7f5241572c00000000000000000000000000000000000000000000000000000000600082015250565b6000614c01600483614a40565b9150614c0c82614bcb565b600482019050919050565b7f2c00000000000000000000000000000000000000000000000000000000000000600082015250565b6000614c4d600183614a40565b9150614c5882614c17565b600182019050919050565b7f2c50524943450000000000000000000000000000000000000000000000000000600082015250565b6000614c99600683614a40565b9150614ca482614c63565b600682019050919050565b6000614cba82614bf4565b9150614cc68285614abd565b9150614cd182614c40565b9150614cdd8284614abd565b9150614ce882614c8c565b91508190509392505050565b7f536f75726365206d75737420626520746865206f7261636c65206f662074686560008201527f2072657175657374000000000000000000000000000000000000000000000000602082015250565b6000614d50602883613d7e565b9150614d5b82614cf4565b604082019050919050565b60006020820190508181036000830152614d7f81614d43565b9050919050565b6000604082019050614d9b6000830185613c2c565b614da860208301846136db565b9392505050565b6000614dba82613652565b9150614dc583613652565b9250828202614dd381613652565b91508282048414831517614dea57614de9613f48565b5b5092915050565b7f4e487b7100000000000000000000000000000000000000000000000000000000600052601260045260246000fd5b6000614e2b82613652565b9150614e3683613652565b925082614e4657614e45614df1565b5b828204905092915050565b6000819050919050565b614e6481614e51565b8114614e6f57600080fd5b50565b600081519050614e8181614e5b565b92915050565b600060208284031215614e9d57614e9c61361c565b5b6000614eab84828501614e72565b91505092915050565b7f616d6f756e742073686f756c64206265203e2030000000000000000000000000600082015250565b6000614eea601483613d7e565b9150614ef582614eb4565b602082019050919050565b60006020820190508181036000830152614f1981614edd565b9050919050565b6000606082019050614f3560008301866135b1565b614f4260208301856136db565b614f4f60408301846136db565b949350505050565b614f608161359f565b82525050565b614f6f81613bbc565b82525050565b614f7e81613652565b82525050565b614f8d8161357f565b82525050565b61010082016000820151614faa6000850182614f57565b506020820151614fbd6020850182614f57565b506040820151614fd06040850182614f66565b506060820151614fe36060850182614f57565b506080820151614ff66080850182614f75565b5060a082015161500960a0850182614f75565b5060c082015161501c60c0850182614f75565b5060e082015161502f60e0850182614f84565b50505050565b60006101008201905061504b6000830184614f93565b92915050565b600061505d828461489c565b915081905092915050565b7f5354000000000000000000000000000000000000000000000000000000000000600082015250565b600061509e600283613d7e565b91506150a982615068565b602082019050919050565b600060208201905081810360008301526150cd81615091565b9050919050565b7f4e487b7100000000000000000000000000000000000000000000000000000000600052603260045260246000fd5b600061510e826135db565b915060ff820361512157615120613f48565b5b600182019050919050565b600060608201905061514160008301866135b1565b61514e60208301856135b1565b61515b60408301846136db565b949350505050565b7f5354460000000000000000000000000000000000000000000000000000000000600082015250565b6000615199600383613d7e565b91506151a482615163565b602082019050919050565b600060208201905081810360008301526151c88161518c565b9050919050565b7f5341000000000000000000000000000000000000000000000000000000000000600082015250565b6000615205600283613d7e565b9150615210826151cf565b602082019050919050565b60006020820190508181036000830152615234816151f8565b9050919050565b600061524682614e51565b915061525183614e51565b925082820390508181126000841216828213600085121516171561527857615277613f48565b5b92915050565b61528781614844565b82525050565b6000610100820190506152a3600083018b6135b1565b6152b0602083018a6136db565b6152bd6040830189613c2c565b6152ca60608301886135b1565b6152d7608083018761527e565b6152e460a08301866136db565b6152f160c08301856136db565b81810360e0830152615303818461390c565b90509998505050505050505050565b600061531d82613652565b915061532883613652565b92508261533857615337614df1565b5b828206905092915050565b600061534e82613731565b9050919050565b61536661536182615343565b6149a4565b82525050565b60006153788285615355565b6014820191506153888284614689565b6020820191508190509392505050565b60006060820190506153ad60008301866135b1565b6153ba60208301856136db565b81810360408301526153cc818461390c565b9050949350505050565b7f756e61626c6520746f207472616e73666572416e6443616c6c20746f206f726160008201527f636c650000000000000000000000000000000000000000000000000000000000602082015250565b6000615432602383613d7e565b915061543d826153d6565b604082019050919050565b6000602082019050818103600083015261546181615425565b9050919050565b60008160011c9050919050565b6000808291508390505b60018511156154bf5780860481111561549b5761549a613f48565b5b60018516156154aa5780820291505b80810290506154b885615468565b945061547f565b94509492505050565b6000826154d85760019050615594565b816154e65760009050615594565b81600181146154fc576002811461550657615535565b6001915050615594565b60ff84111561551857615517613f48565b5b8360020a91508482111561552f5761552e613f48565b5b50615594565b5060208310610133831016604e8410600b841016171561556a5782820a90508381111561556557615564613f48565b5b615594565b6155778484846001615475565b9250905081840481111561558e5761558d613f48565b5b81810290505b9392505050565b60006155a682613652565b91506155b183613652565b92506155de7fffffffffffffffffffffffffffffffffffffffffffffffffffffffffffffffff84846154c8565b90509291505056fea2646970667358221220388b3b25c89db6a1ca01081e0b7339bebb6c97d5e01f43903e9517d9a936061f64736f6c63430008110033",
  "devdoc": {
    "kind": "dev",
    "methods": {},
    "version": 1
  },
  "userdoc": {
    "kind": "user",
    "methods": {},
    "version": 1
  },
  "storageLayout": {
    "storage": [
      {
        "astId": 2615,
        "contract": "contracts/TradingBotV3.sol:TradingBotV3",
        "label": "_status",
        "offset": 0,
        "slot": "0",
        "type": "t_uint256"
      },
      {
        "astId": 358,
        "contract": "contracts/TradingBotV3.sol:TradingBotV3",
        "label": "s_ens",
        "offset": 0,
        "slot": "1",
        "type": "t_contract(ENSInterface)1387"
      },
      {
        "astId": 360,
        "contract": "contracts/TradingBotV3.sol:TradingBotV3",
        "label": "s_ensNode",
        "offset": 0,
        "slot": "2",
        "type": "t_bytes32"
      },
      {
        "astId": 363,
        "contract": "contracts/TradingBotV3.sol:TradingBotV3",
        "label": "s_link",
        "offset": 0,
        "slot": "3",
        "type": "t_contract(LinkTokenInterface)1482"
      },
      {
        "astId": 366,
        "contract": "contracts/TradingBotV3.sol:TradingBotV3",
        "label": "s_oracle",
        "offset": 0,
        "slot": "4",
        "type": "t_contract(OperatorInterface)1562"
      },
      {
        "astId": 369,
        "contract": "contracts/TradingBotV3.sol:TradingBotV3",
        "label": "s_requestCount",
        "offset": 0,
        "slot": "5",
        "type": "t_uint256"
      },
      {
        "astId": 373,
        "contract": "contracts/TradingBotV3.sol:TradingBotV3",
        "label": "s_pendingRequests",
        "offset": 0,
        "slot": "6",
        "type": "t_mapping(t_bytes32,t_address)"
      },
      {
        "astId": 5757,
        "contract": "contracts/TradingBotV3.sol:TradingBotV3",
        "label": "_botIdCounter",
        "offset": 0,
        "slot": "7",
        "type": "t_struct(Counter)3361_storage"
      },
      {
        "astId": 5762,
        "contract": "contracts/TradingBotV3.sol:TradingBotV3",
        "label": "botIdToBotObj",
        "offset": 0,
        "slot": "8",
        "type": "t_mapping(t_uint256,t_struct(BotObj)5641_storage)"
      },
      {
        "astId": 5766,
        "contract": "contracts/TradingBotV3.sol:TradingBotV3",
        "label": "botIdToUpkeepId",
        "offset": 0,
        "slot": "9",
        "type": "t_mapping(t_uint256,t_uint256)"
      },
      {
        "astId": 5770,
        "contract": "contracts/TradingBotV3.sol:TradingBotV3",
        "label": "requestIdToBotId",
        "offset": 0,
        "slot": "10",
        "type": "t_mapping(t_bytes32,t_uint256)"
      },
      {
        "astId": 5783,
        "contract": "contracts/TradingBotV3.sol:TradingBotV3",
        "label": "registerSig",
        "offset": 0,
        "slot": "11",
        "type": "t_bytes4"
      },
      {
        "astId": 5798,
        "contract": "contracts/TradingBotV3.sol:TradingBotV3",
        "label": "stakingBalance",
        "offset": 0,
        "slot": "12",
        "type": "t_mapping(t_address,t_uint256)"
      },
      {
        "astId": 5802,
        "contract": "contracts/TradingBotV3.sol:TradingBotV3",
        "label": "tradingBalance",
        "offset": 0,
        "slot": "13",
        "type": "t_mapping(t_address,t_uint256)"
      },
      {
        "astId": 5806,
        "contract": "contracts/TradingBotV3.sol:TradingBotV3",
        "label": "fundingBalance",
        "offset": 0,
        "slot": "14",
        "type": "t_mapping(t_address,t_uint256)"
      },
      {
        "astId": 5812,
        "contract": "contracts/TradingBotV3.sol:TradingBotV3",
        "label": "i_truflationOracle",
        "offset": 0,
        "slot": "15",
        "type": "t_address"
      }
    ],
    "types": {
      "t_address": {
        "encoding": "inplace",
        "label": "address",
        "numberOfBytes": "20"
      },
      "t_bytes32": {
        "encoding": "inplace",
        "label": "bytes32",
        "numberOfBytes": "32"
      },
      "t_bytes4": {
        "encoding": "inplace",
        "label": "bytes4",
        "numberOfBytes": "4"
      },
      "t_contract(ENSInterface)1387": {
        "encoding": "inplace",
        "label": "contract ENSInterface",
        "numberOfBytes": "20"
      },
      "t_contract(LinkTokenInterface)1482": {
        "encoding": "inplace",
        "label": "contract LinkTokenInterface",
        "numberOfBytes": "20"
      },
      "t_contract(OperatorInterface)1562": {
        "encoding": "inplace",
        "label": "contract OperatorInterface",
        "numberOfBytes": "20"
      },
      "t_mapping(t_address,t_uint256)": {
        "encoding": "mapping",
        "key": "t_address",
        "label": "mapping(address => uint256)",
        "numberOfBytes": "32",
        "value": "t_uint256"
      },
      "t_mapping(t_bytes32,t_address)": {
        "encoding": "mapping",
        "key": "t_bytes32",
        "label": "mapping(bytes32 => address)",
        "numberOfBytes": "32",
        "value": "t_address"
      },
      "t_mapping(t_bytes32,t_uint256)": {
        "encoding": "mapping",
        "key": "t_bytes32",
        "label": "mapping(bytes32 => uint256)",
        "numberOfBytes": "32",
        "value": "t_uint256"
      },
      "t_mapping(t_uint256,t_struct(BotObj)5641_storage)": {
        "encoding": "mapping",
        "key": "t_uint256",
        "label": "mapping(uint256 => struct BotObj)",
        "numberOfBytes": "32",
        "value": "t_struct(BotObj)5641_storage"
      },
      "t_mapping(t_uint256,t_uint256)": {
        "encoding": "mapping",
        "key": "t_uint256",
        "label": "mapping(uint256 => uint256)",
        "numberOfBytes": "32",
        "value": "t_uint256"
      },
      "t_struct(BotObj)5641_storage": {
        "encoding": "inplace",
        "label": "struct BotObj",
        "members": [
          {
            "astId": 5632,
            "contract": "contracts/TradingBotV3.sol:TradingBotV3",
            "label": "owner",
            "offset": 0,
            "slot": "0",
            "type": "t_address"
          },
          {
            "astId": 5634,
            "contract": "contracts/TradingBotV3.sol:TradingBotV3",
            "label": "orderInterval",
            "offset": 0,
            "slot": "1",
            "type": "t_uint256"
          },
          {
            "astId": 5636,
            "contract": "contracts/TradingBotV3.sol:TradingBotV3",
            "label": "orderSize",
            "offset": 0,
            "slot": "2",
            "type": "t_uint256"
          },
          {
            "astId": 5638,
            "contract": "contracts/TradingBotV3.sol:TradingBotV3",
            "label": "lastTimeStamp",
            "offset": 0,
            "slot": "3",
            "type": "t_uint256"
          },
          {
            "astId": 5640,
            "contract": "contracts/TradingBotV3.sol:TradingBotV3",
            "label": "counter",
            "offset": 0,
            "slot": "4",
            "type": "t_uint256"
          }
        ],
        "numberOfBytes": "160"
      },
      "t_struct(Counter)3361_storage": {
        "encoding": "inplace",
        "label": "struct Counters.Counter",
        "members": [
          {
            "astId": 3360,
            "contract": "contracts/TradingBotV3.sol:TradingBotV3",
            "label": "_value",
            "offset": 0,
            "slot": "0",
            "type": "t_uint256"
          }
        ],
        "numberOfBytes": "32"
      },
      "t_uint256": {
        "encoding": "inplace",
        "label": "uint256",
        "numberOfBytes": "32"
      }
    }
  }
}