{
  "address": "0x2C7E6b7f5Bc2f08777bF2e2035951F10055E7aE5",
  "abi": [
    {
      "inputs": [
        {
          "internalType": "address",
          "name": "_truflationClientAddress",
          "type": "address"
        }
      ],
      "stateMutability": "nonpayable",
      "type": "constructor"
    },
    {
      "inputs": [],
      "name": "ApprovalCallerNotOwnerNorApproved",
      "type": "error"
    },
    {
      "inputs": [],
      "name": "ApprovalQueryForNonexistentToken",
      "type": "error"
    },
    {
      "inputs": [],
      "name": "BalanceQueryForZeroAddress",
      "type": "error"
    },
    {
      "inputs": [],
      "name": "MintERC2309QuantityExceedsLimit",
      "type": "error"
    },
    {
      "inputs": [],
      "name": "MintToZeroAddress",
      "type": "error"
    },
    {
      "inputs": [],
      "name": "MintZeroQuantity",
      "type": "error"
    },
    {
      "inputs": [],
      "name": "OwnerQueryForNonexistentToken",
      "type": "error"
    },
    {
      "inputs": [],
      "name": "OwnershipNotInitializedForExtraData",
      "type": "error"
    },
    {
      "inputs": [],
      "name": "TransferCallerNotOwnerNorApproved",
      "type": "error"
    },
    {
      "inputs": [],
      "name": "TransferFromIncorrectOwner",
      "type": "error"
    },
    {
      "inputs": [],
      "name": "TransferToNonERC721ReceiverImplementer",
      "type": "error"
    },
    {
      "inputs": [],
      "name": "TransferToZeroAddress",
      "type": "error"
    },
    {
      "inputs": [],
      "name": "URIQueryForNonexistentToken",
      "type": "error"
    },
    {
      "anonymous": false,
      "inputs": [
        {
          "indexed": true,
          "internalType": "address",
          "name": "owner",
          "type": "address"
        },
        {
          "indexed": true,
          "internalType": "address",
          "name": "approved",
          "type": "address"
        },
        {
          "indexed": true,
          "internalType": "uint256",
          "name": "tokenId",
          "type": "uint256"
        }
      ],
      "name": "Approval",
      "type": "event"
    },
    {
      "anonymous": false,
      "inputs": [
        {
          "indexed": true,
          "internalType": "address",
          "name": "owner",
          "type": "address"
        },
        {
          "indexed": true,
          "internalType": "address",
          "name": "operator",
          "type": "address"
        },
        {
          "indexed": false,
          "internalType": "bool",
          "name": "approved",
          "type": "bool"
        }
      ],
      "name": "ApprovalForAll",
      "type": "event"
    },
    {
      "anonymous": false,
      "inputs": [
        {
          "indexed": true,
          "internalType": "uint256",
          "name": "fromTokenId",
          "type": "uint256"
        },
        {
          "indexed": false,
          "internalType": "uint256",
          "name": "toTokenId",
          "type": "uint256"
        },
        {
          "indexed": true,
          "internalType": "address",
          "name": "from",
          "type": "address"
        },
        {
          "indexed": true,
          "internalType": "address",
          "name": "to",
          "type": "address"
        }
      ],
      "name": "ConsecutiveTransfer",
      "type": "event"
    },
    {
      "anonymous": false,
      "inputs": [
        {
          "indexed": true,
          "internalType": "address",
          "name": "from",
          "type": "address"
        },
        {
          "indexed": true,
          "internalType": "address",
          "name": "to",
          "type": "address"
        },
        {
          "indexed": true,
          "internalType": "uint256",
          "name": "tokenId",
          "type": "uint256"
        }
      ],
      "name": "Transfer",
      "type": "event"
    },
    {
      "inputs": [
        {
          "internalType": "address",
          "name": "to",
          "type": "address"
        },
        {
          "internalType": "uint256",
          "name": "tokenId",
          "type": "uint256"
        }
      ],
      "name": "approve",
      "outputs": [],
      "stateMutability": "payable",
      "type": "function"
    },
    {
      "inputs": [
        {
          "internalType": "address",
          "name": "owner",
          "type": "address"
        }
      ],
      "name": "balanceOf",
      "outputs": [
        {
          "internalType": "uint256",
          "name": "",
          "type": "uint256"
        }
      ],
      "stateMutability": "view",
      "type": "function"
    },
    {
      "inputs": [
        {
          "internalType": "uint256",
          "name": "tokenId",
          "type": "uint256"
        }
      ],
      "name": "burn",
      "outputs": [],
      "stateMutability": "nonpayable",
      "type": "function"
    },
    {
      "inputs": [
        {
          "internalType": "uint256",
          "name": "tokenId",
          "type": "uint256"
        }
      ],
      "name": "getApproved",
      "outputs": [
        {
          "internalType": "address",
          "name": "",
          "type": "address"
        }
      ],
      "stateMutability": "view",
      "type": "function"
    },
    {
      "inputs": [
        {
          "internalType": "address",
          "name": "owner",
          "type": "address"
        },
        {
          "internalType": "address",
          "name": "operator",
          "type": "address"
        }
      ],
      "name": "isApprovedForAll",
      "outputs": [
        {
          "internalType": "bool",
          "name": "",
          "type": "bool"
        }
      ],
      "stateMutability": "view",
      "type": "function"
    },
    {
      "inputs": [],
      "name": "mint",
      "outputs": [],
      "stateMutability": "payable",
      "type": "function"
    },
    {
      "inputs": [],
      "name": "name",
      "outputs": [
        {
          "internalType": "string",
          "name": "",
          "type": "string"
        }
      ],
      "stateMutability": "view",
      "type": "function"
    },
    {
      "inputs": [
        {
          "internalType": "address",
          "name": "",
          "type": "address"
        }
      ],
      "name": "operator",
      "outputs": [
        {
          "internalType": "bool",
          "name": "",
          "type": "bool"
        }
      ],
      "stateMutability": "view",
      "type": "function"
    },
    {
      "inputs": [
        {
          "internalType": "uint256",
          "name": "tokenId",
          "type": "uint256"
        }
      ],
      "name": "ownerOf",
      "outputs": [
        {
          "internalType": "address",
          "name": "",
          "type": "address"
        }
      ],
      "stateMutability": "view",
      "type": "function"
    },
    {
      "inputs": [
        {
          "internalType": "address",
          "name": "",
          "type": "address"
        }
      ],
      "name": "ownerToTokenId",
      "outputs": [
        {
          "internalType": "uint256",
          "name": "",
          "type": "uint256"
        }
      ],
      "stateMutability": "view",
      "type": "function"
    },
    {
      "inputs": [
        {
          "internalType": "address",
          "name": "from",
          "type": "address"
        },
        {
          "internalType": "address",
          "name": "to",
          "type": "address"
        },
        {
          "internalType": "uint256",
          "name": "tokenId",
          "type": "uint256"
        }
      ],
      "name": "safeTransferFrom",
      "outputs": [],
      "stateMutability": "payable",
      "type": "function"
    },
    {
      "inputs": [
        {
          "internalType": "address",
          "name": "from",
          "type": "address"
        },
        {
          "internalType": "address",
          "name": "to",
          "type": "address"
        },
        {
          "internalType": "uint256",
          "name": "tokenId",
          "type": "uint256"
        },
        {
          "internalType": "bytes",
          "name": "_data",
          "type": "bytes"
        }
      ],
      "name": "safeTransferFrom",
      "outputs": [],
      "stateMutability": "payable",
      "type": "function"
    },
    {
      "inputs": [
        {
          "internalType": "address",
          "name": "operator",
          "type": "address"
        },
        {
          "internalType": "bool",
          "name": "approved",
          "type": "bool"
        }
      ],
      "name": "setApprovalForAll",
      "outputs": [],
      "stateMutability": "nonpayable",
      "type": "function"
    },
    {
      "inputs": [
        {
          "internalType": "address",
          "name": "_address",
          "type": "address"
        },
        {
          "internalType": "bool",
          "name": "_isOperator",
          "type": "bool"
        }
      ],
      "name": "setOperator",
      "outputs": [],
      "stateMutability": "nonpayable",
      "type": "function"
    },
    {
      "inputs": [
        {
          "internalType": "string",
          "name": "_identifier",
          "type": "string"
        },
        {
          "internalType": "string",
          "name": "_url",
          "type": "string"
        }
      ],
      "name": "setTokenURIs",
      "outputs": [],
      "stateMutability": "nonpayable",
      "type": "function"
    },
    {
      "inputs": [
        {
          "internalType": "bool",
          "name": "_transferable",
          "type": "bool"
        }
      ],
      "name": "setTransferable",
      "outputs": [],
      "stateMutability": "nonpayable",
      "type": "function"
    },
    {
      "inputs": [
        {
          "internalType": "address",
          "name": "_truflationClientAddress",
          "type": "address"
        }
      ],
      "name": "setTruflationClientAddress",
      "outputs": [],
      "stateMutability": "nonpayable",
      "type": "function"
    },
    {
      "inputs": [
        {
          "internalType": "bytes4",
          "name": "interfaceId",
          "type": "bytes4"
        }
      ],
      "name": "supportsInterface",
      "outputs": [
        {
          "internalType": "bool",
          "name": "",
          "type": "bool"
        }
      ],
      "stateMutability": "view",
      "type": "function"
    },
    {
      "inputs": [],
      "name": "symbol",
      "outputs": [
        {
          "internalType": "string",
          "name": "",
          "type": "string"
        }
      ],
      "stateMutability": "view",
      "type": "function"
    },
    {
      "inputs": [
        {
          "internalType": "uint256",
          "name": "tokenId",
          "type": "uint256"
        }
      ],
      "name": "tokenURI",
      "outputs": [
        {
          "internalType": "string",
          "name": "currentTokenURI",
          "type": "string"
        }
      ],
      "stateMutability": "view",
      "type": "function"
    },
    {
      "inputs": [
        {
          "internalType": "string",
          "name": "",
          "type": "string"
        }
      ],
      "name": "tokenURIs",
      "outputs": [
        {
          "internalType": "string",
          "name": "",
          "type": "string"
        }
      ],
      "stateMutability": "view",
      "type": "function"
    },
    {
      "inputs": [],
      "name": "totalSupply",
      "outputs": [
        {
          "internalType": "uint256",
          "name": "",
          "type": "uint256"
        }
      ],
      "stateMutability": "view",
      "type": "function"
    },
    {
      "inputs": [
        {
          "internalType": "address",
          "name": "_from",
          "type": "address"
        },
        {
          "internalType": "address",
          "name": "_to",
          "type": "address"
        },
        {
          "internalType": "uint256",
          "name": "_tokenId",
          "type": "uint256"
        }
      ],
      "name": "transferFrom",
      "outputs": [],
      "stateMutability": "payable",
      "type": "function"
    },
    {
      "inputs": [],
      "name": "transferable",
      "outputs": [
        {
          "internalType": "bool",
          "name": "",
          "type": "bool"
        }
      ],
      "stateMutability": "view",
      "type": "function"
    },
    {
      "inputs": [],
      "name": "truflationClientAddress",
      "outputs": [
        {
          "internalType": "address",
          "name": "",
          "type": "address"
        }
      ],
      "stateMutability": "view",
      "type": "function"
    }
  ],
  "transactionHash": "0x2823c3fd947ab22ab019465b03fab905a0380928a098fdb6f6f9f2afed0b8b64",
  "args": [
    "0xE8fB4d9eE926C86c68C5720312e5f1Ab6C13a4Ef"
  ],
  "numDeployments": 1,
  "solcInputHash": "3fea5f4b7b1a02a5bdd8ab2b916996a4",
  "bytecode": "0x60806040526000600a60006101000a81548160ff0219169083151502179055503480156200002c57600080fd5b506040516200377e3803806200377e8339818101604052810190620000529190620002de565b6040518060400160405280600881526020017f526f626f744e46540000000000000000000000000000000000000000000000008152506040518060400160405280600481526020017f524e4654000000000000000000000000000000000000000000000000000000008152508160029081620000cf91906200058a565b508060039081620000e191906200058a565b50620000f26200026f60201b60201c565b600081905550505080600d60006101000a81548173ffffffffffffffffffffffffffffffffffffffff021916908373ffffffffffffffffffffffffffffffffffffffff1602179055506001600860003373ffffffffffffffffffffffffffffffffffffffff1673ffffffffffffffffffffffffffffffffffffffff16815260200190815260200160002060006101000a81548160ff021916908315150217905550604051806080016040528060478152602001620036a7604791396009604051620001bd90620006cc565b90815260200160405180910390209081620001d991906200058a565b506040518060800160405280604b8152602001620036ee604b91396009604051620002049062000733565b908152602001604051809103902090816200022091906200058a565b50604051806080016040528060458152602001620037396045913960096040516200024b906200079a565b908152602001604051809103902090816200026791906200058a565b5050620007b1565b600090565b600080fd5b600073ffffffffffffffffffffffffffffffffffffffff82169050919050565b6000620002a68262000279565b9050919050565b620002b88162000299565b8114620002c457600080fd5b50565b600081519050620002d881620002ad565b92915050565b600060208284031215620002f757620002f662000274565b5b60006200030784828501620002c7565b91505092915050565b600081519050919050565b7f4e487b7100000000000000000000000000000000000000000000000000000000600052604160045260246000fd5b7f4e487b7100000000000000000000000000000000000000000000000000000000600052602260045260246000fd5b600060028204905060018216806200039257607f821691505b602082108103620003a857620003a76200034a565b5b50919050565b60008190508160005260206000209050919050565b60006020601f8301049050919050565b600082821b905092915050565b600060088302620004127fffffffffffffffffffffffffffffffffffffffffffffffffffffffffffffffff82620003d3565b6200041e8683620003d3565b95508019841693508086168417925050509392505050565b6000819050919050565b6000819050919050565b60006200046b620004656200045f8462000436565b62000440565b62000436565b9050919050565b6000819050919050565b62000487836200044a565b6200049f620004968262000472565b848454620003e0565b825550505050565b600090565b620004b6620004a7565b620004c38184846200047c565b505050565b5b81811015620004eb57620004df600082620004ac565b600181019050620004c9565b5050565b601f8211156200053a576200050481620003ae565b6200050f84620003c3565b810160208510156200051f578190505b620005376200052e85620003c3565b830182620004c8565b50505b505050565b600082821c905092915050565b60006200055f600019846008026200053f565b1980831691505092915050565b60006200057a83836200054c565b9150826002028217905092915050565b620005958262000310565b67ffffffffffffffff811115620005b157620005b06200031b565b5b620005bd825462000379565b620005ca828285620004ef565b600060209050601f831160018114620006025760008415620005ed578287015190505b620005f985826200056c565b86555062000669565b601f1984166200061286620003ae565b60005b828110156200063c5784890151825560018201915060208501945060208101905062000615565b868310156200065c578489015162000658601f8916826200054c565b8355505b6001600288020188555050505b505050505050565b600081905092915050565b7f6861707079000000000000000000000000000000000000000000000000000000600082015250565b6000620006b460058362000671565b9150620006c1826200067c565b600582019050919050565b6000620006d982620006a5565b9150819050919050565b7f7374726573736564000000000000000000000000000000000000000000000000600082015250565b60006200071b60088362000671565b91506200072882620006e3565b600882019050919050565b600062000740826200070c565b9150819050919050565b7f7361640000000000000000000000000000000000000000000000000000000000600082015250565b60006200078260038362000671565b91506200078f826200074a565b600382019050919050565b6000620007a78262000773565b9150819050919050565b612ee680620007c16000396000f3fe6080604052600436106101665760003560e01c80636352211e116100d15780639cd237071161008a578063c3a33aad11610064578063c3a33aad146104f7578063c87b56dd14610534578063d70e924e14610571578063e985e9c51461059a57610166565b80639cd2370714610489578063a22cb465146104b2578063b88d4fde146104db57610166565b80636352211e146103515780636b0a6e151461038e57806370a08231146103b957806392ff0d31146103f657806395d89b41146104215780639a3073911461044c57610166565b806318160ddd1161012357806318160ddd1461025f57806323b872dd1461028a57806342842e0e146102a657806342966c68146102c25780634814f035146102eb578063558a72971461032857610166565b806301ffc9a71461016b57806306fdde03146101a85780630710b1e5146101d3578063081812fc146101fc578063095ea7b3146102395780631249c58b14610255575b600080fd5b34801561017757600080fd5b50610192600480360381019061018d91906120cf565b6105d7565b60405161019f9190612117565b60405180910390f35b3480156101b457600080fd5b506101bd610669565b6040516101ca91906121c2565b60405180910390f35b3480156101df57600080fd5b506101fa60048036038101906101f59190612319565b6106fb565b005b34801561020857600080fd5b50610223600480360381019061021e91906123c7565b6107be565b6040516102309190612435565b60405180910390f35b610253600480360381019061024e919061247c565b61083d565b005b61025d610981565b005b34801561026b57600080fd5b50610274610a6c565b60405161028191906124cb565b60405180910390f35b6102a4600480360381019061029f91906124e6565b610a83565b005b6102c060048036038101906102bb91906124e6565b610ae2565b005b3480156102ce57600080fd5b506102e960048036038101906102e491906123c7565b610b02565b005b3480156102f757600080fd5b50610312600480360381019061030d9190612539565b610ba3565b60405161031f91906124cb565b60405180910390f35b34801561033457600080fd5b5061034f600480360381019061034a9190612592565b610bbb565b005b34801561035d57600080fd5b50610378600480360381019061037391906123c7565b610ca9565b6040516103859190612435565b60405180910390f35b34801561039a57600080fd5b506103a3610cbb565b6040516103b09190612435565b60405180910390f35b3480156103c557600080fd5b506103e060048036038101906103db9190612539565b610ce1565b6040516103ed91906124cb565b60405180910390f35b34801561040257600080fd5b5061040b610d99565b6040516104189190612117565b60405180910390f35b34801561042d57600080fd5b50610436610dac565b60405161044391906121c2565b60405180910390f35b34801561045857600080fd5b50610473600480360381019061046e9190612539565b610e3e565b6040516104809190612117565b60405180910390f35b34801561049557600080fd5b506104b060048036038101906104ab91906125d2565b610e5e565b005b3480156104be57600080fd5b506104d960048036038101906104d49190612592565b610f0e565b005b6104f560048036038101906104f091906126a0565b611019565b005b34801561050357600080fd5b5061051e60048036038101906105199190612723565b61108c565b60405161052b91906121c2565b60405180910390f35b34801561054057600080fd5b5061055b600480360381019061055691906123c7565b611142565b60405161056891906121c2565b60405180910390f35b34801561057d57600080fd5b5061059860048036038101906105939190612539565b6113bd565b005b3480156105a657600080fd5b506105c160048036038101906105bc919061276c565b611494565b6040516105ce9190612117565b60405180910390f35b60006301ffc9a760e01b827bffffffffffffffffffffffffffffffffffffffffffffffffffffffff1916148061063257506380ac58cd60e01b827bffffffffffffffffffffffffffffffffffffffffffffffffffffffff1916145b806106625750635b5e139f60e01b827bffffffffffffffffffffffffffffffffffffffffffffffffffffffff1916145b9050919050565b606060028054610678906127db565b80601f01602080910402602001604051908101604052809291908181526020018280546106a4906127db565b80156106f15780601f106106c6576101008083540402835291602001916106f1565b820191906000526020600020905b8154815290600101906020018083116106d457829003601f168201915b5050505050905090565b60011515600860003373ffffffffffffffffffffffffffffffffffffffff1673ffffffffffffffffffffffffffffffffffffffff16815260200190815260200160002060009054906101000a900460ff1615151461078e576040517f08c379a000000000000000000000000000000000000000000000000000000000815260040161078590612858565b60405180910390fd5b8060098360405161079f91906128b4565b908152602001604051809103902090816107b99190612a77565b505050565b60006107c982611528565b6107ff576040517fcf4700e400000000000000000000000000000000000000000000000000000000815260040160405180910390fd5b6006600083815260200190815260200160002060000160009054906101000a900473ffffffffffffffffffffffffffffffffffffffff169050919050565b600061084882610ca9565b90508073ffffffffffffffffffffffffffffffffffffffff16610869611587565b73ffffffffffffffffffffffffffffffffffffffff16146108cc5761089581610890611587565b611494565b6108cb576040517fcfb3b94200000000000000000000000000000000000000000000000000000000815260040160405180910390fd5b5b826006600084815260200190815260200160002060000160006101000a81548173ffffffffffffffffffffffffffffffffffffffff021916908373ffffffffffffffffffffffffffffffffffffffff160217905550818373ffffffffffffffffffffffffffffffffffffffff168273ffffffffffffffffffffffffffffffffffffffff167f8c5be1e5ebec7d5bd14f71427d1e84f3dd0314c0f7b2291e5b200ac8c7c3b92560405160405180910390a4505050565b60011515600860003373ffffffffffffffffffffffffffffffffffffffff1673ffffffffffffffffffffffffffffffffffffffff16815260200190815260200160002060009054906101000a900460ff16151514610a14576040517f08c379a0000000000000000000000000000000000000000000000000000000008152600401610a0b90612858565b60405180910390fd5b610a1c61158f565b600b60003373ffffffffffffffffffffffffffffffffffffffff1673ffffffffffffffffffffffffffffffffffffffff16815260200190815260200160002081905550610a6a336001611598565b565b6000610a76611753565b6001546000540303905090565b600a60009054906101000a900460ff16610ad2576040517f08c379a0000000000000000000000000000000000000000000000000000000008152600401610ac990612b95565b60405180910390fd5b610add838383611758565b505050565b610afd83838360405180602001604052806000815250611019565b505050565b60011515600860003373ffffffffffffffffffffffffffffffffffffffff1673ffffffffffffffffffffffffffffffffffffffff16815260200190815260200160002060009054906101000a900460ff16151514610b95576040517f08c379a0000000000000000000000000000000000000000000000000000000008152600401610b8c90612858565b60405180910390fd5b610ba0816000611a7a565b50565b600b6020528060005260406000206000915090505481565b60011515600860003373ffffffffffffffffffffffffffffffffffffffff1673ffffffffffffffffffffffffffffffffffffffff16815260200190815260200160002060009054906101000a900460ff16151514610c4e576040517f08c379a0000000000000000000000000000000000000000000000000000000008152600401610c4590612858565b60405180910390fd5b80600860008473ffffffffffffffffffffffffffffffffffffffff1673ffffffffffffffffffffffffffffffffffffffff16815260200190815260200160002060006101000a81548160ff0219169083151502179055505050565b6000610cb482611ccc565b9050919050565b600d60009054906101000a900473ffffffffffffffffffffffffffffffffffffffff1681565b60008073ffffffffffffffffffffffffffffffffffffffff168273ffffffffffffffffffffffffffffffffffffffff1603610d48576040517f8f4eb60400000000000000000000000000000000000000000000000000000000815260040160405180910390fd5b67ffffffffffffffff600560008473ffffffffffffffffffffffffffffffffffffffff1673ffffffffffffffffffffffffffffffffffffffff16815260200190815260200160002054169050919050565b600a60009054906101000a900460ff1681565b606060038054610dbb906127db565b80601f0160208091040260200160405190810160405280929190818152602001828054610de7906127db565b8015610e345780601f10610e0957610100808354040283529160200191610e34565b820191906000526020600020905b815481529060010190602001808311610e1757829003601f168201915b5050505050905090565b60086020528060005260406000206000915054906101000a900460ff1681565b60011515600860003373ffffffffffffffffffffffffffffffffffffffff1673ffffffffffffffffffffffffffffffffffffffff16815260200190815260200160002060009054906101000a900460ff16151514610ef1576040517f08c379a0000000000000000000000000000000000000000000000000000000008152600401610ee890612858565b60405180910390fd5b80600a60006101000a81548160ff02191690831515021790555050565b8060076000610f1b611587565b73ffffffffffffffffffffffffffffffffffffffff1673ffffffffffffffffffffffffffffffffffffffff16815260200190815260200160002060008473ffffffffffffffffffffffffffffffffffffffff1673ffffffffffffffffffffffffffffffffffffffff16815260200190815260200160002060006101000a81548160ff0219169083151502179055508173ffffffffffffffffffffffffffffffffffffffff16610fc8611587565b73ffffffffffffffffffffffffffffffffffffffff167f17307eab39ab6107e8899845ad3d59bd9653f200f220920489ca2b5937696c318360405161100d9190612117565b60405180910390a35050565b611024848484610a83565b60008373ffffffffffffffffffffffffffffffffffffffff163b146110865761104f84848484611d98565b611085576040517fd1a57ed600000000000000000000000000000000000000000000000000000000815260040160405180910390fd5b5b50505050565b60098180516020810182018051848252602083016020850120818352809550505050505060009150905080546110c1906127db565b80601f01602080910402602001604051908101604052809291908181526020018280546110ed906127db565b801561113a5780601f1061110f5761010080835404028352916020019161113a565b820191906000526020600020905b81548152906001019060200180831161111d57829003601f168201915b505050505081565b606061114d82611528565b61118c576040517f08c379a000000000000000000000000000000000000000000000000000000000815260040161118390612c27565b60405180910390fd5b6000611196611ee8565b90506729a2241af62c000081136112535760096040516111b590612c93565b908152602001604051809103902080546111ce906127db565b80601f01602080910402602001604051908101604052809291908181526020018280546111fa906127db565b80156112475780601f1061121c57610100808354040283529160200191611247565b820191906000526020600020905b81548152906001019060200180831161122a57829003601f168201915b505050505091506113b7565b676124fee993bc0000811361130e57600960405161127090612cf4565b90815260200160405180910390208054611289906127db565b80601f01602080910402602001604051908101604052809291908181526020018280546112b5906127db565b80156113025780601f106112d757610100808354040283529160200191611302565b820191906000526020600020905b8154815290600101906020018083116112e557829003601f168201915b505050505091506113b6565b600960405161131c90612d55565b90815260200160405180910390208054611335906127db565b80601f0160208091040260200160405190810160405280929190818152602001828054611361906127db565b80156113ae5780601f10611383576101008083540402835291602001916113ae565b820191906000526020600020905b81548152906001019060200180831161139157829003601f168201915b505050505091505b5b50919050565b60011515600860003373ffffffffffffffffffffffffffffffffffffffff1673ffffffffffffffffffffffffffffffffffffffff16815260200190815260200160002060009054906101000a900460ff16151514611450576040517f08c379a000000000000000000000000000000000000000000000000000000000815260040161144790612858565b60405180910390fd5b80600d60006101000a81548173ffffffffffffffffffffffffffffffffffffffff021916908373ffffffffffffffffffffffffffffffffffffffff16021790555050565b6000600760008473ffffffffffffffffffffffffffffffffffffffff1673ffffffffffffffffffffffffffffffffffffffff16815260200190815260200160002060008373ffffffffffffffffffffffffffffffffffffffff1673ffffffffffffffffffffffffffffffffffffffff16815260200190815260200160002060009054906101000a900460ff16905092915050565b600081611533611753565b11158015611542575060005482105b8015611580575060007c0100000000000000000000000000000000000000000000000000000000600460008581526020019081526020016000205416145b9050919050565b600033905090565b60008054905090565b600080549050600082036115d8576040517fb562e8dd00000000000000000000000000000000000000000000000000000000815260040160405180910390fd5b6115e56000848385611f80565b600160406001901b178202600560008573ffffffffffffffffffffffffffffffffffffffff1673ffffffffffffffffffffffffffffffffffffffff1681526020019081526020016000206000828254019250508190555061165c8361164d6000866000611f86565b61165685611fae565b17611fbe565b6004600083815260200190815260200160002081905550600080838301905073ffffffffffffffffffffffffffffffffffffffff85169150828260007fddf252ad1be2c89b69c2b068fc378daa952ba7f163c4a11628f55a4df523b3ef600080a4600183015b8181146116fd57808360007fddf252ad1be2c89b69c2b068fc378daa952ba7f163c4a11628f55a4df523b3ef600080a46001810190506116c2565b5060008203611738576040517f2e07630000000000000000000000000000000000000000000000000000000000815260040160405180910390fd5b80600081905550505061174e6000848385611fe9565b505050565b600090565b600061176382611ccc565b90508373ffffffffffffffffffffffffffffffffffffffff168173ffffffffffffffffffffffffffffffffffffffff16146117ca576040517fa114810000000000000000000000000000000000000000000000000000000000815260040160405180910390fd5b6000806117d684611fef565b915091506117ec81876117e7611587565b612016565b61183857611801866117fc611587565b611494565b611837576040517f59c896be00000000000000000000000000000000000000000000000000000000815260040160405180910390fd5b5b600073ffffffffffffffffffffffffffffffffffffffff168573ffffffffffffffffffffffffffffffffffffffff160361189e576040517fea553b3400000000000000000000000000000000000000000000000000000000815260040160405180910390fd5b6118ab8686866001611f80565b80156118b657600082555b600560008773ffffffffffffffffffffffffffffffffffffffff1673ffffffffffffffffffffffffffffffffffffffff168152602001908152602001600020600081546001900391905081905550600560008673ffffffffffffffffffffffffffffffffffffffff1673ffffffffffffffffffffffffffffffffffffffff168152602001908152602001600020600081546001019190508190555061198485611960888887611f86565b7c020000000000000000000000000000000000000000000000000000000017611fbe565b600460008681526020019081526020016000208190555060007c0200000000000000000000000000000000000000000000000000000000841603611a0a5760006001850190506000600460008381526020019081526020016000205403611a08576000548114611a07578360046000838152602001908152602001600020819055505b5b505b838573ffffffffffffffffffffffffffffffffffffffff168773ffffffffffffffffffffffffffffffffffffffff167fddf252ad1be2c89b69c2b068fc378daa952ba7f163c4a11628f55a4df523b3ef60405160405180910390a4611a728686866001611fe9565b505050505050565b6000611a8583611ccc565b90506000819050600080611a9886611fef565b915091508415611b0157611ab48184611aaf611587565b612016565b611b0057611ac983611ac4611587565b611494565b611aff576040517f59c896be00000000000000000000000000000000000000000000000000000000815260040160405180910390fd5b5b5b611b0f836000886001611f80565b8015611b1a57600082555b600160806001901b03600560008573ffffffffffffffffffffffffffffffffffffffff1673ffffffffffffffffffffffffffffffffffffffff16815260200190815260200160002060008282540192505081905550611bc283611b7f85600088611f86565b7c02000000000000000000000000000000000000000000000000000000007c01000000000000000000000000000000000000000000000000000000001717611fbe565b600460008881526020019081526020016000208190555060007c0200000000000000000000000000000000000000000000000000000000851603611c485760006001870190506000600460008381526020019081526020016000205403611c46576000548114611c45578460046000838152602001908152602001600020819055505b5b505b85600073ffffffffffffffffffffffffffffffffffffffff168473ffffffffffffffffffffffffffffffffffffffff167fddf252ad1be2c89b69c2b068fc378daa952ba7f163c4a11628f55a4df523b3ef60405160405180910390a4611cb2836000886001611fe9565b600160008154809291906001019190505550505050505050565b60008082905080611cdb611753565b11611d6157600054811015611d605760006004600083815260200190815260200160002054905060007c0100000000000000000000000000000000000000000000000000000000821603611d5e575b60008103611d54576004600083600190039350838152602001908152602001600020549050611d2a565b8092505050611d93565b505b5b6040517fdf2d9b4200000000000000000000000000000000000000000000000000000000815260040160405180910390fd5b919050565b60008373ffffffffffffffffffffffffffffffffffffffff1663150b7a02611dbe611587565b8786866040518563ffffffff1660e01b8152600401611de09493929190612dbf565b6020604051808303816000875af1925050508015611e1c57506040513d601f19601f82011682018060405250810190611e199190612e20565b60015b611e95573d8060008114611e4c576040519150601f19603f3d011682016040523d82523d6000602084013e611e51565b606091505b506000815103611e8d576040517fd1a57ed600000000000000000000000000000000000000000000000000000000815260040160405180910390fd5b805181602001fd5b63150b7a0260e01b7bffffffffffffffffffffffffffffffffffffffffffffffffffffffff1916817bffffffffffffffffffffffffffffffffffffffffffffffffffffffff191614915050949350505050565b6000600d60009054906101000a900473ffffffffffffffffffffffffffffffffffffffff1673ffffffffffffffffffffffffffffffffffffffff1663be0522e06040518163ffffffff1660e01b8152600401602060405180830381865afa158015611f57573d6000803e3d6000fd5b505050506040513d601f19601f82011682018060405250810190611f7b9190612e83565b905090565b50505050565b60008060e883901c905060e8611f9d86868461205a565b62ffffff16901b9150509392505050565b60006001821460e11b9050919050565b600073ffffffffffffffffffffffffffffffffffffffff83169250814260a01b178317905092915050565b50505050565b60008060006006600085815260200190815260200160002090508092508254915050915091565b600073ffffffffffffffffffffffffffffffffffffffff8316925073ffffffffffffffffffffffffffffffffffffffff821691508382148383141790509392505050565b60009392505050565b6000604051905090565b600080fd5b600080fd5b60007fffffffff0000000000000000000000000000000000000000000000000000000082169050919050565b6120ac81612077565b81146120b757600080fd5b50565b6000813590506120c9816120a3565b92915050565b6000602082840312156120e5576120e461206d565b5b60006120f3848285016120ba565b91505092915050565b60008115159050919050565b612111816120fc565b82525050565b600060208201905061212c6000830184612108565b92915050565b600081519050919050565b600082825260208201905092915050565b60005b8381101561216c578082015181840152602081019050612151565b60008484015250505050565b6000601f19601f8301169050919050565b600061219482612132565b61219e818561213d565b93506121ae81856020860161214e565b6121b781612178565b840191505092915050565b600060208201905081810360008301526121dc8184612189565b905092915050565b600080fd5b600080fd5b7f4e487b7100000000000000000000000000000000000000000000000000000000600052604160045260246000fd5b61222682612178565b810181811067ffffffffffffffff82111715612245576122446121ee565b5b80604052505050565b6000612258612063565b9050612264828261221d565b919050565b600067ffffffffffffffff821115612284576122836121ee565b5b61228d82612178565b9050602081019050919050565b82818337600083830152505050565b60006122bc6122b784612269565b61224e565b9050828152602081018484840111156122d8576122d76121e9565b5b6122e384828561229a565b509392505050565b600082601f830112612300576122ff6121e4565b5b81356123108482602086016122a9565b91505092915050565b600080604083850312156123305761232f61206d565b5b600083013567ffffffffffffffff81111561234e5761234d612072565b5b61235a858286016122eb565b925050602083013567ffffffffffffffff81111561237b5761237a612072565b5b612387858286016122eb565b9150509250929050565b6000819050919050565b6123a481612391565b81146123af57600080fd5b50565b6000813590506123c18161239b565b92915050565b6000602082840312156123dd576123dc61206d565b5b60006123eb848285016123b2565b91505092915050565b600073ffffffffffffffffffffffffffffffffffffffff82169050919050565b600061241f826123f4565b9050919050565b61242f81612414565b82525050565b600060208201905061244a6000830184612426565b92915050565b61245981612414565b811461246457600080fd5b50565b60008135905061247681612450565b92915050565b600080604083850312156124935761249261206d565b5b60006124a185828601612467565b92505060206124b2858286016123b2565b9150509250929050565b6124c581612391565b82525050565b60006020820190506124e060008301846124bc565b92915050565b6000806000606084860312156124ff576124fe61206d565b5b600061250d86828701612467565b935050602061251e86828701612467565b925050604061252f868287016123b2565b9150509250925092565b60006020828403121561254f5761254e61206d565b5b600061255d84828501612467565b91505092915050565b61256f816120fc565b811461257a57600080fd5b50565b60008135905061258c81612566565b92915050565b600080604083850312156125a9576125a861206d565b5b60006125b785828601612467565b92505060206125c88582860161257d565b9150509250929050565b6000602082840312156125e8576125e761206d565b5b60006125f68482850161257d565b91505092915050565b600067ffffffffffffffff82111561261a576126196121ee565b5b61262382612178565b9050602081019050919050565b600061264361263e846125ff565b61224e565b90508281526020810184848401111561265f5761265e6121e9565b5b61266a84828561229a565b509392505050565b600082601f830112612687576126866121e4565b5b8135612697848260208601612630565b91505092915050565b600080600080608085870312156126ba576126b961206d565b5b60006126c887828801612467565b94505060206126d987828801612467565b93505060406126ea878288016123b2565b925050606085013567ffffffffffffffff81111561270b5761270a612072565b5b61271787828801612672565b91505092959194509250565b6000602082840312156127395761273861206d565b5b600082013567ffffffffffffffff81111561275757612756612072565b5b612763848285016122eb565b91505092915050565b600080604083850312156127835761278261206d565b5b600061279185828601612467565b92505060206127a285828601612467565b9150509250929050565b7f4e487b7100000000000000000000000000000000000000000000000000000000600052602260045260246000fd5b600060028204905060018216806127f357607f821691505b602082108103612806576128056127ac565b5b50919050565b7f596f75206d7573742062652061206f70657261746f7221000000000000000000600082015250565b600061284260178361213d565b915061284d8261280c565b602082019050919050565b6000602082019050818103600083015261287181612835565b9050919050565b600081905092915050565b600061288e82612132565b6128988185612878565b93506128a881856020860161214e565b80840191505092915050565b60006128c08284612883565b915081905092915050565b60008190508160005260206000209050919050565b60006020601f8301049050919050565b600082821b905092915050565b60006008830261292d7fffffffffffffffffffffffffffffffffffffffffffffffffffffffffffffffff826128f0565b61293786836128f0565b95508019841693508086168417925050509392505050565b6000819050919050565b600061297461296f61296a84612391565b61294f565b612391565b9050919050565b6000819050919050565b61298e83612959565b6129a261299a8261297b565b8484546128fd565b825550505050565b600090565b6129b76129aa565b6129c2818484612985565b505050565b5b818110156129e6576129db6000826129af565b6001810190506129c8565b5050565b601f821115612a2b576129fc816128cb565b612a05846128e0565b81016020851015612a14578190505b612a28612a20856128e0565b8301826129c7565b50505b505050565b600082821c905092915050565b6000612a4e60001984600802612a30565b1980831691505092915050565b6000612a678383612a3d565b9150826002028217905092915050565b612a8082612132565b67ffffffffffffffff811115612a9957612a986121ee565b5b612aa382546127db565b612aae8282856129ea565b600060209050601f831160018114612ae15760008415612acf578287015190505b612ad98582612a5b565b865550612b41565b601f198416612aef866128cb565b60005b82811015612b1757848901518255600182019150602085019450602081019050612af2565b86831015612b345784890151612b30601f891682612a3d565b8355505b6001600288020188555050505b505050505050565b7f596f752063616e2774207472616e73666572207468697320746f6b656e000000600082015250565b6000612b7f601d8361213d565b9150612b8a82612b49565b602082019050919050565b60006020820190508181036000830152612bae81612b72565b9050919050565b7f4552433732314d657461646174613a2055524920717565727920666f72206e6f60008201527f6e6578697374656e7420746f6b656e0000000000000000000000000000000000602082015250565b6000612c11602f8361213d565b9150612c1c82612bb5565b604082019050919050565b60006020820190508181036000830152612c4081612c04565b9050919050565b7f6861707079000000000000000000000000000000000000000000000000000000600082015250565b6000612c7d600583612878565b9150612c8882612c47565b600582019050919050565b6000612c9e82612c70565b9150819050919050565b7f7374726573736564000000000000000000000000000000000000000000000000600082015250565b6000612cde600883612878565b9150612ce982612ca8565b600882019050919050565b6000612cff82612cd1565b9150819050919050565b7f7361640000000000000000000000000000000000000000000000000000000000600082015250565b6000612d3f600383612878565b9150612d4a82612d09565b600382019050919050565b6000612d6082612d32565b9150819050919050565b600081519050919050565b600082825260208201905092915050565b6000612d9182612d6a565b612d9b8185612d75565b9350612dab81856020860161214e565b612db481612178565b840191505092915050565b6000608082019050612dd46000830187612426565b612de16020830186612426565b612dee60408301856124bc565b8181036060830152612e008184612d86565b905095945050505050565b600081519050612e1a816120a3565b92915050565b600060208284031215612e3657612e3561206d565b5b6000612e4484828501612e0b565b91505092915050565b6000819050919050565b612e6081612e4d565b8114612e6b57600080fd5b50565b600081519050612e7d81612e57565b92915050565b600060208284031215612e9957612e9861206d565b5b6000612ea784828501612e6e565b9150509291505056fea2646970667358221220fced0b9e3e423958ec113b9209e04910f38dba648b82bfb1b8bf360e9ffbd8d864736f6c63430008110033697066732f516d6156464467635a6d54576b4d70634e54364d6f6d374565386765334e43464a6852466264346e6d31526372742f726f626f742d6e66742d68617070792e706e67697066732f516d6156464467635a6d54576b4d70634e54364d6f6d374565386765334e43464a6852466264346e6d31526372742f726f626f742d6e66742d73747265737365642d2e706e67697066732f516d6156464467635a6d54576b4d70634e54364d6f6d374565386765334e43464a6852466264346e6d31526372742f726f626f742d6e66742d7361642e706e67",
  "devdoc": {
    "kind": "dev",
    "methods": {
      "approve(address,uint256)": {
        "details": "Gives permission to `to` to transfer `tokenId` token to another account. The approval is cleared when the token is transferred. Only a single account can be approved at a time, so approving the zero address clears previous approvals. Requirements: - The caller must own the token or be an approved operator. - `tokenId` must exist. Emits an {Approval} event."
      },
      "balanceOf(address)": {
        "details": "Returns the number of tokens in `owner`'s account."
      },
      "getApproved(uint256)": {
        "details": "Returns the account approved for `tokenId` token. Requirements: - `tokenId` must exist."
      },
      "isApprovedForAll(address,address)": {
        "details": "Returns if the `operator` is allowed to manage all of the assets of `owner`. See {setApprovalForAll}."
      },
      "name()": {
        "details": "Returns the token collection name."
      },
      "ownerOf(uint256)": {
        "details": "Returns the owner of the `tokenId` token. Requirements: - `tokenId` must exist."
      },
      "safeTransferFrom(address,address,uint256)": {
        "details": "Equivalent to `safeTransferFrom(from, to, tokenId, '')`."
      },
      "safeTransferFrom(address,address,uint256,bytes)": {
        "details": "Safely transfers `tokenId` token from `from` to `to`. Requirements: - `from` cannot be the zero address. - `to` cannot be the zero address. - `tokenId` token must exist and be owned by `from`. - If the caller is not `from`, it must be approved to move this token by either {approve} or {setApprovalForAll}. - If `to` refers to a smart contract, it must implement {IERC721Receiver-onERC721Received}, which is called upon a safe transfer. Emits a {Transfer} event."
      },
      "setApprovalForAll(address,bool)": {
        "details": "Approve or remove `operator` as an operator for the caller. Operators can call {transferFrom} or {safeTransferFrom} for any token owned by the caller. Requirements: - The `operator` cannot be the caller. Emits an {ApprovalForAll} event."
      },
      "supportsInterface(bytes4)": {
        "details": "Returns true if this contract implements the interface defined by `interfaceId`. See the corresponding [EIP section](https://eips.ethereum.org/EIPS/eip-165#how-interfaces-are-identified) to learn more about how these ids are created. This function call must use less than 30000 gas."
      },
      "symbol()": {
        "details": "Returns the token collection symbol."
      },
      "tokenURI(uint256)": {
        "details": "Returns the Uniform Resource Identifier (URI) for `tokenId` token."
      },
      "totalSupply()": {
        "details": "Returns the total number of tokens in existence. Burned tokens will reduce the count. To get the total number of tokens minted, please see {_totalMinted}."
      }
    },
    "version": 1
  },
  "userdoc": {
    "errors": {
      "ApprovalCallerNotOwnerNorApproved()": [
        {
          "notice": "The caller must own the token or be an approved operator."
        }
      ],
      "ApprovalQueryForNonexistentToken()": [
        {
          "notice": "The token does not exist."
        }
      ],
      "BalanceQueryForZeroAddress()": [
        {
          "notice": "Cannot query the balance for the zero address."
        }
      ],
      "MintERC2309QuantityExceedsLimit()": [
        {
          "notice": "The `quantity` minted with ERC2309 exceeds the safety limit."
        }
      ],
      "MintToZeroAddress()": [
        {
          "notice": "Cannot mint to the zero address."
        }
      ],
      "MintZeroQuantity()": [
        {
          "notice": "The quantity of tokens minted must be more than zero."
        }
      ],
      "OwnerQueryForNonexistentToken()": [
        {
          "notice": "The token does not exist."
        }
      ],
      "OwnershipNotInitializedForExtraData()": [
        {
          "notice": "The `extraData` cannot be set on an unintialized ownership slot."
        }
      ],
      "TransferCallerNotOwnerNorApproved()": [
        {
          "notice": "The caller must own the token or be an approved operator."
        }
      ],
      "TransferFromIncorrectOwner()": [
        {
          "notice": "The token must be owned by `from`."
        }
      ],
      "TransferToNonERC721ReceiverImplementer()": [
        {
          "notice": "Cannot safely transfer to a contract that does not implement the ERC721Receiver interface."
        }
      ],
      "TransferToZeroAddress()": [
        {
          "notice": "Cannot transfer to the zero address."
        }
      ],
      "URIQueryForNonexistentToken()": [
        {
          "notice": "The token does not exist."
        }
      ]
    },
    "kind": "user",
    "methods": {
      "setOperator(address,bool)": {
        "notice": "Operator Functions"
      }
    },
    "notice": "LP token representing proof of deposit",
    "version": 1
  },
  "storageLayout": {
    "storage": [
      {
        "astId": 3271,
        "contract": "contracts/RobotNFT.sol:RobotNFT",
        "label": "_currentIndex",
        "offset": 0,
        "slot": "0",
        "type": "t_uint256"
      },
      {
        "astId": 3273,
        "contract": "contracts/RobotNFT.sol:RobotNFT",
        "label": "_burnCounter",
        "offset": 0,
        "slot": "1",
        "type": "t_uint256"
      },
      {
        "astId": 3275,
        "contract": "contracts/RobotNFT.sol:RobotNFT",
        "label": "_name",
        "offset": 0,
        "slot": "2",
        "type": "t_string_storage"
      },
      {
        "astId": 3277,
        "contract": "contracts/RobotNFT.sol:RobotNFT",
        "label": "_symbol",
        "offset": 0,
        "slot": "3",
        "type": "t_string_storage"
      },
      {
        "astId": 3281,
        "contract": "contracts/RobotNFT.sol:RobotNFT",
        "label": "_packedOwnerships",
        "offset": 0,
        "slot": "4",
        "type": "t_mapping(t_uint256,t_uint256)"
      },
      {
        "astId": 3285,
        "contract": "contracts/RobotNFT.sol:RobotNFT",
        "label": "_packedAddressData",
        "offset": 0,
        "slot": "5",
        "type": "t_mapping(t_address,t_uint256)"
      },
      {
        "astId": 3290,
        "contract": "contracts/RobotNFT.sol:RobotNFT",
        "label": "_tokenApprovals",
        "offset": 0,
        "slot": "6",
        "type": "t_mapping(t_uint256,t_struct(TokenApprovalRef)3203_storage)"
      },
      {
        "astId": 3296,
        "contract": "contracts/RobotNFT.sol:RobotNFT",
        "label": "_operatorApprovals",
        "offset": 0,
        "slot": "7",
        "type": "t_mapping(t_address,t_mapping(t_address,t_bool))"
      },
      {
        "astId": 2610,
        "contract": "contracts/RobotNFT.sol:RobotNFT",
        "label": "operator",
        "offset": 0,
        "slot": "8",
        "type": "t_mapping(t_address,t_bool)"
      },
      {
        "astId": 2614,
        "contract": "contracts/RobotNFT.sol:RobotNFT",
        "label": "tokenURIs",
        "offset": 0,
        "slot": "9",
        "type": "t_mapping(t_string_memory_ptr,t_string_storage)"
      },
      {
        "astId": 2617,
        "contract": "contracts/RobotNFT.sol:RobotNFT",
        "label": "transferable",
        "offset": 0,
        "slot": "10",
        "type": "t_bool"
      },
      {
        "astId": 2621,
        "contract": "contracts/RobotNFT.sol:RobotNFT",
        "label": "ownerToTokenId",
        "offset": 0,
        "slot": "11",
        "type": "t_mapping(t_address,t_uint256)"
      },
      {
        "astId": 2624,
        "contract": "contracts/RobotNFT.sol:RobotNFT",
        "label": "truflationClient",
        "offset": 0,
        "slot": "12",
        "type": "t_contract(TruflationClient)3179"
      },
      {
        "astId": 2626,
        "contract": "contracts/RobotNFT.sol:RobotNFT",
        "label": "truflationClientAddress",
        "offset": 0,
        "slot": "13",
        "type": "t_address"
      }
    ],
    "types": {
      "t_address": {
        "encoding": "inplace",
        "label": "address",
        "numberOfBytes": "20"
      },
      "t_bool": {
        "encoding": "inplace",
        "label": "bool",
        "numberOfBytes": "1"
      },
      "t_contract(TruflationClient)3179": {
        "encoding": "inplace",
        "label": "contract TruflationClient",
        "numberOfBytes": "20"
      },
      "t_mapping(t_address,t_bool)": {
        "encoding": "mapping",
        "key": "t_address",
        "label": "mapping(address => bool)",
        "numberOfBytes": "32",
        "value": "t_bool"
      },
      "t_mapping(t_address,t_mapping(t_address,t_bool))": {
        "encoding": "mapping",
        "key": "t_address",
        "label": "mapping(address => mapping(address => bool))",
        "numberOfBytes": "32",
        "value": "t_mapping(t_address,t_bool)"
      },
      "t_mapping(t_address,t_uint256)": {
        "encoding": "mapping",
        "key": "t_address",
        "label": "mapping(address => uint256)",
        "numberOfBytes": "32",
        "value": "t_uint256"
      },
      "t_mapping(t_string_memory_ptr,t_string_storage)": {
        "encoding": "mapping",
        "key": "t_string_memory_ptr",
        "label": "mapping(string => string)",
        "numberOfBytes": "32",
        "value": "t_string_storage"
      },
      "t_mapping(t_uint256,t_struct(TokenApprovalRef)3203_storage)": {
        "encoding": "mapping",
        "key": "t_uint256",
        "label": "mapping(uint256 => struct ERC721A.TokenApprovalRef)",
        "numberOfBytes": "32",
        "value": "t_struct(TokenApprovalRef)3203_storage"
      },
      "t_mapping(t_uint256,t_uint256)": {
        "encoding": "mapping",
        "key": "t_uint256",
        "label": "mapping(uint256 => uint256)",
        "numberOfBytes": "32",
        "value": "t_uint256"
      },
      "t_string_memory_ptr": {
        "encoding": "bytes",
        "label": "string",
        "numberOfBytes": "32"
      },
      "t_string_storage": {
        "encoding": "bytes",
        "label": "string",
        "numberOfBytes": "32"
      },
      "t_struct(TokenApprovalRef)3203_storage": {
        "encoding": "inplace",
        "label": "struct ERC721A.TokenApprovalRef",
        "members": [
          {
            "astId": 3202,
            "contract": "contracts/RobotNFT.sol:RobotNFT",
            "label": "value",
            "offset": 0,
            "slot": "0",
            "type": "t_address"
          }
        ],
        "numberOfBytes": "32"
      },
      "t_uint256": {
        "encoding": "inplace",
        "label": "uint256",
        "numberOfBytes": "32"
      }
    }
  }
}