{
  "address": "0xD12F9fD7b503603C972FFCD697959BeEA7CDFeb9",
  "abi": [
    {
      "inputs": [
        {
          "internalType": "contract LinkTokenInterface",
          "name": "_link",
          "type": "address"
        },
        {
          "internalType": "address",
          "name": "_registrar",
          "type": "address"
        },
        {
          "internalType": "contract AutomationRegistryInterface",
          "name": "_registry",
          "type": "address"
        },
        {
          "internalType": "contract ISwapRouter",
          "name": "_swapRouter",
          "type": "address"
        },
        {
          "internalType": "address",
          "name": "_stakedToken",
          "type": "address"
        },
        {
          "internalType": "address",
          "name": "_tradedToken",
          "type": "address"
        },
        {
          "internalType": "address",
          "name": "_chainlinkOracle",
          "type": "address"
        },
        {
          "internalType": "bytes32",
          "name": "_getPriceJobId",
          "type": "bytes32"
        },
        {
          "internalType": "uint256",
          "name": "_getPriceFee",
          "type": "uint256"
        },
        {
          "internalType": "address",
          "name": "_truflationOracle",
          "type": "address"
        }
      ],
      "stateMutability": "nonpayable",
      "type": "constructor"
    },
    {
      "inputs": [],
      "name": "AutoApproveDisabled",
      "type": "error"
    },
    {
      "inputs": [
        {
          "internalType": "bytes32",
          "name": "requestId",
          "type": "bytes32"
        }
      ],
      "name": "NoCounterIDAssociated",
      "type": "error"
    },
    {
      "inputs": [
        {
          "internalType": "uint256",
          "name": "currentTimeStamp",
          "type": "uint256"
        },
        {
          "internalType": "uint256",
          "name": "lastTimeStamp",
          "type": "uint256"
        }
      ],
      "name": "UpkeepNotNeeded",
      "type": "error"
    },
    {
      "anonymous": false,
      "inputs": [
        {
          "indexed": true,
          "internalType": "bytes32",
          "name": "id",
          "type": "bytes32"
        }
      ],
      "name": "ChainlinkCancelled",
      "type": "event"
    },
    {
      "anonymous": false,
      "inputs": [
        {
          "indexed": true,
          "internalType": "bytes32",
          "name": "id",
          "type": "bytes32"
        }
      ],
      "name": "ChainlinkFulfilled",
      "type": "event"
    },
    {
      "anonymous": false,
      "inputs": [
        {
          "indexed": true,
          "internalType": "bytes32",
          "name": "id",
          "type": "bytes32"
        }
      ],
      "name": "ChainlinkRequested",
      "type": "event"
    },
    {
      "anonymous": false,
      "inputs": [
        {
          "indexed": false,
          "internalType": "string",
          "name": "url",
          "type": "string"
        }
      ],
      "name": "ConcatenatedURL",
      "type": "event"
    },
    {
      "anonymous": false,
      "inputs": [
        {
          "indexed": false,
          "internalType": "bytes32",
          "name": "requestId",
          "type": "bytes32"
        },
        {
          "indexed": false,
          "internalType": "uint256",
          "name": "price",
          "type": "uint256"
        }
      ],
      "name": "FullfillPrice",
      "type": "event"
    },
    {
      "anonymous": false,
      "inputs": [
        {
          "indexed": false,
          "internalType": "address",
          "name": "sender",
          "type": "address"
        },
        {
          "indexed": false,
          "internalType": "uint256",
          "name": "amountIn",
          "type": "uint256"
        },
        {
          "indexed": false,
          "internalType": "uint256",
          "name": "amountOutMinimum",
          "type": "uint256"
        }
      ],
      "name": "SwapTokensForTokens",
      "type": "event"
    },
    {
      "anonymous": false,
      "inputs": [
        {
          "indexed": true,
          "internalType": "address",
          "name": "receiver",
          "type": "address"
        },
        {
          "indexed": false,
          "internalType": "uint256",
          "name": "amountIn",
          "type": "uint256"
        },
        {
          "indexed": false,
          "internalType": "uint256",
          "name": "amountOut",
          "type": "uint256"
        }
      ],
      "name": "TradeOccured",
      "type": "event"
    },
    {
      "inputs": [
        {
          "internalType": "uint256",
          "name": "",
          "type": "uint256"
        }
      ],
      "name": "botIdToBotObj",
      "outputs": [
        {
          "internalType": "address",
          "name": "owner",
          "type": "address"
        },
        {
          "internalType": "uint256",
          "name": "orderInterval",
          "type": "uint256"
        },
        {
          "internalType": "uint256",
          "name": "orderSize",
          "type": "uint256"
        },
        {
          "internalType": "uint256",
          "name": "lastTimeStamp",
          "type": "uint256"
        },
        {
          "internalType": "uint256",
          "name": "counter",
          "type": "uint256"
        }
      ],
      "stateMutability": "view",
      "type": "function"
    },
    {
      "inputs": [
        {
          "internalType": "uint256",
          "name": "",
          "type": "uint256"
        }
      ],
      "name": "botIdToUpkeepId",
      "outputs": [
        {
          "internalType": "uint256",
          "name": "",
          "type": "uint256"
        }
      ],
      "stateMutability": "view",
      "type": "function"
    },
    {
      "inputs": [],
      "name": "cacheInterval",
      "outputs": [
        {
          "internalType": "uint256",
          "name": "",
          "type": "uint256"
        }
      ],
      "stateMutability": "view",
      "type": "function"
    },
    {
      "inputs": [
        {
          "internalType": "bytes",
          "name": "checkData",
          "type": "bytes"
        }
      ],
      "name": "checkUpkeep",
      "outputs": [
        {
          "internalType": "bool",
          "name": "upkeepNeeded",
          "type": "bool"
        },
        {
          "internalType": "bytes",
          "name": "performData",
          "type": "bytes"
        }
      ],
      "stateMutability": "view",
      "type": "function"
    },
    {
      "inputs": [
        {
          "internalType": "address",
          "name": "owner",
          "type": "address"
        },
        {
          "internalType": "uint256",
          "name": "orderInterval",
          "type": "uint256"
        },
        {
          "internalType": "uint256",
          "name": "orderSize",
          "type": "uint256"
        }
      ],
      "name": "createNewBotInstance",
      "outputs": [
        {
          "internalType": "uint256",
          "name": "",
          "type": "uint256"
        }
      ],
      "stateMutability": "nonpayable",
      "type": "function"
    },
    {
      "inputs": [],
      "name": "feeTier",
      "outputs": [
        {
          "internalType": "uint24",
          "name": "",
          "type": "uint24"
        }
      ],
      "stateMutability": "view",
      "type": "function"
    },
    {
      "inputs": [
        {
          "internalType": "bytes32",
          "name": "_requestId",
          "type": "bytes32"
        },
        {
          "internalType": "uint256",
          "name": "_price",
          "type": "uint256"
        }
      ],
      "name": "fulfillPrice",
      "outputs": [],
      "stateMutability": "nonpayable",
      "type": "function"
    },
    {
      "inputs": [
        {
          "internalType": "uint256",
          "name": "fundingAmount",
          "type": "uint256"
        }
      ],
      "name": "fund",
      "outputs": [],
      "stateMutability": "nonpayable",
      "type": "function"
    },
    {
      "inputs": [
        {
          "internalType": "address",
          "name": "",
          "type": "address"
        }
      ],
      "name": "fundingBalance",
      "outputs": [
        {
          "internalType": "uint256",
          "name": "",
          "type": "uint256"
        }
      ],
      "stateMutability": "view",
      "type": "function"
    },
    {
      "inputs": [],
      "name": "i_getPriceFee",
      "outputs": [
        {
          "internalType": "uint256",
          "name": "",
          "type": "uint256"
        }
      ],
      "stateMutability": "view",
      "type": "function"
    },
    {
      "inputs": [],
      "name": "i_getPriceJobId",
      "outputs": [
        {
          "internalType": "bytes32",
          "name": "",
          "type": "bytes32"
        }
      ],
      "stateMutability": "view",
      "type": "function"
    },
    {
      "inputs": [],
      "name": "i_link",
      "outputs": [
        {
          "internalType": "contract LinkTokenInterface",
          "name": "",
          "type": "address"
        }
      ],
      "stateMutability": "view",
      "type": "function"
    },
    {
      "inputs": [],
      "name": "i_registrar",
      "outputs": [
        {
          "internalType": "address",
          "name": "",
          "type": "address"
        }
      ],
      "stateMutability": "view",
      "type": "function"
    },
    {
      "inputs": [],
      "name": "i_registry",
      "outputs": [
        {
          "internalType": "contract AutomationRegistryInterface",
          "name": "",
          "type": "address"
        }
      ],
      "stateMutability": "view",
      "type": "function"
    },
    {
      "inputs": [],
      "name": "i_stakedToken",
      "outputs": [
        {
          "internalType": "address",
          "name": "",
          "type": "address"
        }
      ],
      "stateMutability": "view",
      "type": "function"
    },
    {
      "inputs": [],
      "name": "i_stakedTokenSymbol",
      "outputs": [
        {
          "internalType": "bytes32",
          "name": "",
          "type": "bytes32"
        }
      ],
      "stateMutability": "view",
      "type": "function"
    },
    {
      "inputs": [],
      "name": "i_swapRouter",
      "outputs": [
        {
          "internalType": "contract ISwapRouter",
          "name": "",
          "type": "address"
        }
      ],
      "stateMutability": "view",
      "type": "function"
    },
    {
      "inputs": [],
      "name": "i_tradedToken",
      "outputs": [
        {
          "internalType": "address",
          "name": "",
          "type": "address"
        }
      ],
      "stateMutability": "view",
      "type": "function"
    },
    {
      "inputs": [],
      "name": "i_tradedTokenSymbol",
      "outputs": [
        {
          "internalType": "bytes32",
          "name": "",
          "type": "bytes32"
        }
      ],
      "stateMutability": "view",
      "type": "function"
    },
    {
      "inputs": [],
      "name": "i_truflationOracle",
      "outputs": [
        {
          "internalType": "address",
          "name": "",
          "type": "address"
        }
      ],
      "stateMutability": "view",
      "type": "function"
    },
    {
      "inputs": [
        {
          "internalType": "bytes",
          "name": "performData",
          "type": "bytes"
        }
      ],
      "name": "performUpkeep",
      "outputs": [],
      "stateMutability": "nonpayable",
      "type": "function"
    },
    {
      "inputs": [
        {
          "internalType": "string",
          "name": "name",
          "type": "string"
        },
        {
          "internalType": "uint32",
          "name": "gasLimit",
          "type": "uint32"
        },
        {
          "internalType": "uint96",
          "name": "fundingAmount",
          "type": "uint96"
        },
        {
          "internalType": "uint256",
          "name": "orderInterval",
          "type": "uint256"
        },
        {
          "internalType": "uint256",
          "name": "orderSize",
          "type": "uint256"
        }
      ],
      "name": "registerNewAutomation",
      "outputs": [],
      "stateMutability": "nonpayable",
      "type": "function"
    },
    {
      "inputs": [
        {
          "internalType": "bytes32",
          "name": "",
          "type": "bytes32"
        }
      ],
      "name": "requestIdToBotId",
      "outputs": [
        {
          "internalType": "uint256",
          "name": "",
          "type": "uint256"
        }
      ],
      "stateMutability": "view",
      "type": "function"
    },
    {
      "inputs": [
        {
          "internalType": "uint256",
          "name": "botId",
          "type": "uint256"
        }
      ],
      "name": "requestPriceAndSwapToken",
      "outputs": [
        {
          "internalType": "bytes32",
          "name": "requestId",
          "type": "bytes32"
        }
      ],
      "stateMutability": "nonpayable",
      "type": "function"
    },
    {
      "inputs": [
        {
          "internalType": "uint256",
          "name": "stakingAmount",
          "type": "uint256"
        }
      ],
      "name": "stake",
      "outputs": [],
      "stateMutability": "nonpayable",
      "type": "function"
    },
    {
      "inputs": [
        {
          "internalType": "address",
          "name": "",
          "type": "address"
        }
      ],
      "name": "stakingBalance",
      "outputs": [
        {
          "internalType": "uint256",
          "name": "",
          "type": "uint256"
        }
      ],
      "stateMutability": "view",
      "type": "function"
    },
    {
      "inputs": [],
      "name": "swapSlippage",
      "outputs": [
        {
          "internalType": "uint8",
          "name": "",
          "type": "uint8"
        }
      ],
      "stateMutability": "view",
      "type": "function"
    },
    {
      "inputs": [
        {
          "internalType": "address",
          "name": "receiver",
          "type": "address"
        },
        {
          "internalType": "uint256",
          "name": "amountIn",
          "type": "uint256"
        },
        {
          "internalType": "uint256",
          "name": "amountOutMinimum",
          "type": "uint256"
        }
      ],
      "name": "swapTokensForTokens",
      "outputs": [],
      "stateMutability": "nonpayable",
      "type": "function"
    },
    {
      "inputs": [
        {
          "internalType": "address",
          "name": "",
          "type": "address"
        }
      ],
      "name": "tradingBalance",
      "outputs": [
        {
          "internalType": "uint256",
          "name": "",
          "type": "uint256"
        }
      ],
      "stateMutability": "view",
      "type": "function"
    },
    {
      "inputs": [],
      "name": "unstake",
      "outputs": [],
      "stateMutability": "nonpayable",
      "type": "function"
    },
    {
      "inputs": [],
      "name": "withdrawFunds",
      "outputs": [],
      "stateMutability": "nonpayable",
      "type": "function"
    }
  ],
  "transactionHash": "0x9947081a5f31ace2ab56fc44103a1f3a7a43d7e10d9fdb17411f860c069d5951",
  "args": [
    "0x326C977E6efc84E512bB9C30f76E30c160eD06FB",
    "0xDb8e8e2ccb5C033938736aa89Fe4fa1eDfD15a1d",
    "0x02777053d6764996e594c3E88AF1D58D5363a2e6",
    "0xE592427A0AEce92De3Edee1F18E0157C05861564",
    "0x9c3C9283D3e44854697Cd22D3Faa240Cfb032889",
    "0xA6FA4fB5f76172d178d61B04b0ecd319C5d1C0aa",
    "0xB61d1aA7E1c888605033C0896473287D159Bc00c",
    "0x3836393633636535656334363439316462643436303935653862323236386431",
    "100000000000000000",
    "0xE8fB4d9eE926C86c68C5720312e5f1Ab6C13a4Ef"
  ],
  "numDeployments": 2,
  "solcInputHash": "2dc72e95dec43c798a4b5e8dfaedafec",
  "bytecode": "0x6101c06040526001600555633659d66660e01b600b60006101000a81548163ffffffff021916908360e01c02179055503480156200003c57600080fd5b5060405162005fa838038062005fa88339818101604052810190620000629190620005b8565b60016000819055508973ffffffffffffffffffffffffffffffffffffffff1660808173ffffffffffffffffffffffffffffffffffffffff16815250508873ffffffffffffffffffffffffffffffffffffffff1660a08173ffffffffffffffffffffffffffffffffffffffff16815250508773ffffffffffffffffffffffffffffffffffffffff1660c08173ffffffffffffffffffffffffffffffffffffffff16815250508673ffffffffffffffffffffffffffffffffffffffff1660e08173ffffffffffffffffffffffffffffffffffffffff16815250508573ffffffffffffffffffffffffffffffffffffffff166101008173ffffffffffffffffffffffffffffffffffffffff16815250508473ffffffffffffffffffffffffffffffffffffffff166101208173ffffffffffffffffffffffffffffffffffffffff16815250506200022b8673ffffffffffffffffffffffffffffffffffffffff166395d89b416040518163ffffffff1660e01b8152600401600060405180830381865afa158015620001f4573d6000803e3d6000fd5b505050506040513d6000823e3d601f19601f820116820180604052508101906200021f91906200082d565b6200034760201b60201c565b6101408181525050620002ba8573ffffffffffffffffffffffffffffffffffffffff166395d89b416040518163ffffffff1660e01b8152600401600060405180830381865afa15801562000283573d6000803e3d6000fd5b505050506040513d6000823e3d601f19601f82011682018060405250810190620002ae91906200082d565b6200034760201b60201c565b6101608181525050620002d38a6200037260201b60201c565b620002e484620003b660201b60201c565b826101808181525050816101a0818152505080600f60006101000a81548173ffffffffffffffffffffffffffffffffffffffff021916908373ffffffffffffffffffffffffffffffffffffffff160217905550505050505050505050506200087e565b600080829050600081510362000364576000801b9150506200036d565b60208301519150505b919050565b80600360006101000a81548173ffffffffffffffffffffffffffffffffffffffff021916908373ffffffffffffffffffffffffffffffffffffffff16021790555050565b80600460006101000a81548173ffffffffffffffffffffffffffffffffffffffff021916908373ffffffffffffffffffffffffffffffffffffffff16021790555050565b6000604051905090565b600080fd5b600080fd5b600073ffffffffffffffffffffffffffffffffffffffff82169050919050565b60006200043b826200040e565b9050919050565b60006200044f826200042e565b9050919050565b620004618162000442565b81146200046d57600080fd5b50565b600081519050620004818162000456565b92915050565b62000492816200042e565b81146200049e57600080fd5b50565b600081519050620004b28162000487565b92915050565b6000620004c5826200042e565b9050919050565b620004d781620004b8565b8114620004e357600080fd5b50565b600081519050620004f781620004cc565b92915050565b60006200050a826200042e565b9050919050565b6200051c81620004fd565b81146200052857600080fd5b50565b6000815190506200053c8162000511565b92915050565b6000819050919050565b620005578162000542565b81146200056357600080fd5b50565b60008151905062000577816200054c565b92915050565b6000819050919050565b62000592816200057d565b81146200059e57600080fd5b50565b600081519050620005b28162000587565b92915050565b6000806000806000806000806000806101408b8d031215620005df57620005de62000404565b5b6000620005ef8d828e0162000470565b9a50506020620006028d828e01620004a1565b9950506040620006158d828e01620004e6565b9850506060620006288d828e016200052b565b97505060806200063b8d828e01620004a1565b96505060a06200064e8d828e01620004a1565b95505060c0620006618d828e01620004a1565b94505060e0620006748d828e0162000566565b935050610100620006888d828e01620005a1565b9250506101206200069c8d828e01620004a1565b9150509295989b9194979a5092959850565b600080fd5b600080fd5b6000601f19601f8301169050919050565b7f4e487b7100000000000000000000000000000000000000000000000000000000600052604160045260246000fd5b6200070382620006b8565b810181811067ffffffffffffffff82111715620007255762000724620006c9565b5b80604052505050565b60006200073a620003fa565b9050620007488282620006f8565b919050565b600067ffffffffffffffff8211156200076b576200076a620006c9565b5b6200077682620006b8565b9050602081019050919050565b60005b83811015620007a357808201518184015260208101905062000786565b60008484015250505050565b6000620007c6620007c0846200074d565b6200072e565b905082815260208101848484011115620007e557620007e4620006b3565b5b620007f284828562000783565b509392505050565b600082601f830112620008125762000811620006ae565b5b815162000824848260208601620007af565b91505092915050565b60006020828403121562000846576200084562000404565b5b600082015167ffffffffffffffff81111562000867576200086662000409565b5b6200087584828501620007fa565b91505092915050565b60805160a05160c05160e05161010051610120516101405161016051610180516101a0516156296200097f60003960008181610a6e01528181610f2001526118410152600081816116e401526118890152600081816116b70152611f2901526000611f4d015260008181610a2601526121410152600081816109cf01528181610a0201528181611de9015281816120af015261210501526000818161103e015281816120d001526121d701526000818161088f01528181611255015281816114f101526115c3015260008181610a4a015261143c01526000818161074801528181610bd401528181611400015281816118ad0152611fb701526156296000f3fe608060405234801561001057600080fd5b50600436106101e55760003560e01c80637080bf471161010f578063a694fc3a116100a2578063ac8fda1011610071578063ac8fda101461058b578063b48c423b146105a9578063ca1d209d146105c7578063f3b4a67f146105e3576101e5565b8063a694fc3a146104db578063a776fb94146104f7578063aa0ff6801461052b578063ab4578751461055b576101e5565b80637d253aff116100de5780637d253aff146104415780638cdec8221461045f5780638d2a648d1461048f57806390c66660146104ab576101e5565b80637080bf47146103b957806372f5d98a146103d55780637556dfd3146103f357806379851a3414610423576101e5565b806339b394061161018757806345bc78ab1161015657806345bc78ab1461031c57806358fb80541461034c5780635a2b81f51461036a5780636e04ff0d14610388576101e5565b806339b39406146102a6578063442b1278146102c457806345150973146102e25780634585e33b14610300576101e5565b80632a46046a116101c35780632a46046a146102305780632a663606146102605780632def66201461027e5780632e276ffd14610288576101e5565b8063081f4c31146101ea5780631aedeabe1461020857806324600fc314610226575b600080fd5b6101f26105ff565b6040516101ff91906135cd565b60405180910390f35b610210610625565b60405161021d9190613604565b60405180910390f35b61022e61062a565b005b61024a60048036038101906102459190613695565b610779565b60405161025791906136f7565b60405180910390f35b61026861088d565b6040516102759190613771565b60405180910390f35b6102866108b1565b005b610290610a00565b60405161029d91906135cd565b60405180910390f35b6102ae610a24565b6040516102bb91906135cd565b60405180910390f35b6102cc610a48565b6040516102d991906135cd565b60405180910390f35b6102ea610a6c565b6040516102f791906136f7565b60405180910390f35b61031a600480360381019061031591906137f1565b610a90565b005b6103366004803603810190610331919061383e565b611024565b60405161034391906136f7565b60405180910390f35b61035461103c565b604051610361919061388c565b60405180910390f35b610372611060565b60405161037f91906136f7565b60405180910390f35b6103a2600480360381019061039d91906137f1565b611067565b6040516103b0929190613952565b60405180910390f35b6103d360048036038101906103ce9190613b32565b6110d8565b005b6103dd61166f565b6040516103ea9190613be7565b60405180910390f35b61040d60048036038101906104089190613c02565b611675565b60405161041a9190613c48565b60405180910390f35b61042b611887565b6040516104389190613c48565b60405180910390f35b6104496118ab565b6040516104569190613c84565b60405180910390f35b61047960048036038101906104749190613ccb565b6118cf565b60405161048691906136f7565b60405180910390f35b6104a960048036038101906104a49190613cf8565b6118e7565b005b6104c560048036038101906104c09190613c02565b611d89565b6040516104d291906136f7565b60405180910390f35b6104f560048036038101906104f09190613c02565b611da1565b005b610511600480360381019061050c9190613c02565b611ea1565b604051610522959493929190613d38565b60405180910390f35b6105456004803603810190610540919061383e565b611ef7565b60405161055291906136f7565b60405180910390f35b6105756004803603810190610570919061383e565b611f0f565b60405161058291906136f7565b60405180910390f35b610593611f27565b6040516105a09190613c48565b60405180910390f35b6105b1611f4b565b6040516105be9190613c48565b60405180910390f35b6105e160048036038101906105dc9190613c02565b611f6f565b005b6105fd60048036038101906105f89190613695565b61206f565b005b600f60009054906101000a900473ffffffffffffffffffffffffffffffffffffffff1681565b600a81565b60026000540361066f576040517f08c379a000000000000000000000000000000000000000000000000000000000815260040161066690613de8565b60405180910390fd5b60026000819055506000600e60003373ffffffffffffffffffffffffffffffffffffffff1673ffffffffffffffffffffffffffffffffffffffff168152602001908152602001600020549050600081116106fe576040517f08c379a00000000000000000000000000000000000000000000000000000000081526004016106f590613e7a565b60405180910390fd5b6000600e60003373ffffffffffffffffffffffffffffffffffffffff1673ffffffffffffffffffffffffffffffffffffffff1681526020019081526020016000208190555061076e7f000000000000000000000000000000000000000000000000000000000000000033836123e6565b506001600081905550565b600080610786600761253b565b90506107926007612549565b61079a6134c0565b85816000019073ffffffffffffffffffffffffffffffffffffffff16908173ffffffffffffffffffffffffffffffffffffffff16815250508481602001818152505083816040018181525050428160600181815250506000816080018181525050806008600084815260200190815260200160002060008201518160000160006101000a81548173ffffffffffffffffffffffffffffffffffffffff021916908373ffffffffffffffffffffffffffffffffffffffff1602179055506020820151816001015560408201518160020155606082015181600301556080820151816004015590505081925050509392505050565b7f000000000000000000000000000000000000000000000000000000000000000081565b6002600054036108f6576040517f08c379a00000000000000000000000000000000000000000000000000000000081526004016108ed90613de8565b60405180910390fd5b60026000819055506000600c60003373ffffffffffffffffffffffffffffffffffffffff1673ffffffffffffffffffffffffffffffffffffffff16815260200190815260200160002054905060008111610985576040517f08c379a000000000000000000000000000000000000000000000000000000000815260040161097c90613f0c565b60405180910390fd5b6000600c60003373ffffffffffffffffffffffffffffffffffffffff1673ffffffffffffffffffffffffffffffffffffffff168152602001908152602001600020819055506109f57f000000000000000000000000000000000000000000000000000000000000000033836123e6565b506001600081905550565b7f000000000000000000000000000000000000000000000000000000000000000081565b7f000000000000000000000000000000000000000000000000000000000000000081565b7f000000000000000000000000000000000000000000000000000000000000000081565b7f000000000000000000000000000000000000000000000000000000000000000081565b60008282810190610aa19190613c02565b90506000600860008381526020019081526020016000209050610ac38261255f565b610b0a574281600301546040517fa7586210000000000000000000000000000000000000000000000000000000008152600401610b01929190613f2c565b60405180910390fd5b42816003018190555060018160040154610b249190613f84565b816004018190555062015180600f60009054906101000a900473ffffffffffffffffffffffffffffffffffffffff1673ffffffffffffffffffffffffffffffffffffffff16633f3b3b276040518163ffffffff1660e01b8152600401602060405180830381865afa158015610b9d573d6000803e3d6000fd5b505050506040513d601f19601f82011682018060405250810190610bc19190613fcd565b42610bcc9190613ffa565b1115610f1e577f000000000000000000000000000000000000000000000000000000000000000073ffffffffffffffffffffffffffffffffffffffff1663095ea7b3600f60009054906101000a900473ffffffffffffffffffffffffffffffffffffffff16600f60009054906101000a900473ffffffffffffffffffffffffffffffffffffffff1673ffffffffffffffffffffffffffffffffffffffff1663ddca3f436040518163ffffffff1660e01b8152600401602060405180830381865afa158015610c9e573d6000803e3d6000fd5b505050506040513d601f19601f82011682018060405250810190610cc29190613fcd565b6040518363ffffffff1660e01b8152600401610cdf92919061402e565b6020604051808303816000875af1158015610cfe573d6000803e3d6000fd5b505050506040513d601f19601f82011682018060405250810190610d229190614083565b50600f60009054906101000a900473ffffffffffffffffffffffffffffffffffffffff1673ffffffffffffffffffffffffffffffffffffffff1663ddca3f436040518163ffffffff1660e01b8152600401602060405180830381865afa158015610d90573d6000803e3d6000fd5b505050506040513d601f19601f82011682018060405250810190610db49190613fcd565b600e60008360000160009054906101000a900473ffffffffffffffffffffffffffffffffffffffff1673ffffffffffffffffffffffffffffffffffffffff1673ffffffffffffffffffffffffffffffffffffffff16815260200190815260200160002054610e229190613ffa565b600e60008360000160009054906101000a900473ffffffffffffffffffffffffffffffffffffffff1673ffffffffffffffffffffffffffffffffffffffff1673ffffffffffffffffffffffffffffffffffffffff16815260200190815260200160002081905550600f60009054906101000a900473ffffffffffffffffffffffffffffffffffffffff1673ffffffffffffffffffffffffffffffffffffffff16639e1c5f1e6040518163ffffffff1660e01b81526004016020604051808303816000875af1158015610ef8573d6000803e3d6000fd5b505050506040513d601f19601f82011682018060405250810190610f1c91906140c5565b505b7f0000000000000000000000000000000000000000000000000000000000000000600e60008360000160009054906101000a900473ffffffffffffffffffffffffffffffffffffffff1673ffffffffffffffffffffffffffffffffffffffff1673ffffffffffffffffffffffffffffffffffffffff16815260200190815260200160002054610fad9190613ffa565b600e60008360000160009054906101000a900473ffffffffffffffffffffffffffffffffffffffff1673ffffffffffffffffffffffffffffffffffffffff1673ffffffffffffffffffffffffffffffffffffffff1681526020019081526020016000208190555061101d82611675565b5050505050565b600c6020528060005260406000206000915090505481565b7f000000000000000000000000000000000000000000000000000000000000000081565b6201518081565b600060606000848481019061107c9190613c02565b90506110878161255f565b925084848080601f016020809104026020016040519081016040528093929190818152602001838380828437600081840152601f19601f820116905080830192505050505050509150509250929050565b674563918244f40000836bffffffffffffffffffffffff161015611131576040517f08c379a00000000000000000000000000000000000000000000000000000000081526004016111289061413e565b60405180910390fd5b603c821015611175576040517f08c379a000000000000000000000000000000000000000000000000000000000815260040161116c906141d0565b60405180910390fd5b655af3107a40008110156111be576040517f08c379a00000000000000000000000000000000000000000000000000000000081526004016111b590614262565b60405180910390fd5b826bffffffffffffffffffffffff16600e60003373ffffffffffffffffffffffffffffffffffffffff1673ffffffffffffffffffffffffffffffffffffffff16815260200190815260200160002054101561124e576040517f08c379a0000000000000000000000000000000000000000000000000000000008152600401611245906142f4565b60405180910390fd5b60008060007f000000000000000000000000000000000000000000000000000000000000000073ffffffffffffffffffffffffffffffffffffffff16631865c57d6040518163ffffffff1660e01b8152600401600060405180830381865afa1580156112be573d6000803e3d6000fd5b505050506040513d6000823e3d601f19601f820116820180604052508101906112e7919061461b565b9250925092506000836000015163ffffffff1690506000611309338888610779565b905060008160405160200161131e91906146ad565b604051602081830303815290604052905060008b308c33858e6000306040516020016113519897969594939291906147b1565b6040516020818303038152906040529050896bffffffffffffffffffffffff16600e60003373ffffffffffffffffffffffffffffffffffffffff1673ffffffffffffffffffffffffffffffffffffffff168152602001908152602001600020546113bb9190613ffa565b600e60003373ffffffffffffffffffffffffffffffffffffffff1673ffffffffffffffffffffffffffffffffffffffff168152602001908152602001600020819055507f000000000000000000000000000000000000000000000000000000000000000073ffffffffffffffffffffffffffffffffffffffff16634000aea07f00000000000000000000000000000000000000000000000000000000000000008c600b60009054906101000a900460e01b8560405160200161147e9291906148da565b6040516020818303038152906040526040518463ffffffff1660e01b81526004016114ab93929190614933565b6020604051808303816000875af11580156114ca573d6000803e3d6000fd5b505050506040513d601f19601f820116820180604052508101906114ee9190614083565b507f000000000000000000000000000000000000000000000000000000000000000073ffffffffffffffffffffffffffffffffffffffff16631865c57d6040518163ffffffff1660e01b8152600401600060405180830381865afa15801561155a573d6000803e3d6000fd5b505050506040513d6000823e3d601f19601f82011682018060405250810190611583919061461b565b8097508198508299505050506000876000015163ffffffff1690506001856115ab9190613f84565b810361162e5760006001436115c09190613ffa565b407f0000000000000000000000000000000000000000000000000000000000000000876040516020016115f593929190614a10565b6040516020818303038152906040528051906020012060001c905080600960008781526020019081526020016000208190555050611660565b6040517f6874c3d400000000000000000000000000000000000000000000000000000000815260040160405180910390fd5b50505050505050505050505050565b610bb881565b6000806040518060400160405280600581526020017f4d41544943000000000000000000000000000000000000000000000000000000815250905060006116db7f0000000000000000000000000000000000000000000000000000000000000000612679565b905060006117117f000000000000000000000000000000000000000000000000000000000000000030638d2a648d60e01b612814565b905061177e6040518060400160405280600381526020017f6765740000000000000000000000000000000000000000000000000000000000815250848460405160200161175f929190614b93565b604051602081830303815290604052836128459092919063ffffffff16565b6117e96040518060400160405280600481526020017f706174680000000000000000000000000000000000000000000000000000000081525084846040516020016117ca929190614cbc565b604051602081830303815290604052836128459092919063ffffffff16565b61183b6040518060400160405280600581526020017f74696d6573000000000000000000000000000000000000000000000000000000815250670de0b6b3a7640000836128789092919063ffffffff16565b611865817f00000000000000000000000000000000000000000000000000000000000000006128ab565b935084600a600086815260200190815260200160002081905550505050919050565b7f000000000000000000000000000000000000000000000000000000000000000081565b7f000000000000000000000000000000000000000000000000000000000000000081565b600a6020528060005260406000206000915090505481565b816006600082815260200190815260200160002060009054906101000a900473ffffffffffffffffffffffffffffffffffffffff1673ffffffffffffffffffffffffffffffffffffffff163373ffffffffffffffffffffffffffffffffffffffff1614611989576040517f08c379a000000000000000000000000000000000000000000000000000000000815260040161198090614d73565b60405180910390fd5b6006600082815260200190815260200160002060006101000a81549073ffffffffffffffffffffffffffffffffffffffff0219169055807f7cc135e0cebb02c3480ae5d74d377283180a2601f8f644edf7987b009316c63a60405160405180910390a27fb96e12cc3e842b19473cb569fb361ed37ce916cd6870f81d591b73828908964c8383604051611a1d929190614d93565b60405180910390a16000600a60008581526020019081526020016000205490506000600860008381526020019081526020016000206040518060a00160405290816000820160009054906101000a900473ffffffffffffffffffffffffffffffffffffffff1673ffffffffffffffffffffffffffffffffffffffff1673ffffffffffffffffffffffffffffffffffffffff16815260200160018201548152602001600282015481526020016003820154815260200160048201548152505090506000816040015103611b2657846040517f5d544bc2000000000000000000000000000000000000000000000000000000008152600401611b1d9190613c48565b60405180910390fd5b6000670de0b6b3a7640000826040015186611b419190614dbc565b611b4b9190614e2d565b905060006064600a60ff1683611b619190614dbc565b611b6b9190614e2d565b82611b769190613ffa565b90506000600f60009054906101000a900473ffffffffffffffffffffffffffffffffffffffff1673ffffffffffffffffffffffffffffffffffffffff1663be0522e06040518163ffffffff1660e01b8152600401602060405180830381865afa158015611be7573d6000803e3d6000fd5b505050506040513d601f19601f82011682018060405250810190611c0b9190614e94565b905060008082138015611c2657506802b5e3af16b188000082125b15611c655768056bc75e2d63100000828660400151611c459190614dbc565b611c4f9190614e2d565b8560400151611c5e9190613f84565b9050611cdc565b600082128015611c9457507ffffffffffffffffffffffffffffffffffffffffffffffffd4a1c50e94e78000082135b15611cd35768056bc75e2d63100000828660400151611cb39190614dbc565b611cbd9190614e2d565b8560400151611ccc9190613ffa565b9050611cdb565b846040015190505b5b80600c6000876000015173ffffffffffffffffffffffffffffffffffffffff1673ffffffffffffffffffffffffffffffffffffffff168152602001908152602001600020541015611d6e57600c6000866000015173ffffffffffffffffffffffffffffffffffffffff1673ffffffffffffffffffffffffffffffffffffffff1681526020019081526020016000205490505b611d7e856000015182600061206f565b505050505050505050565b60096020528060005260406000206000915090505481565b60008111611de4576040517f08c379a0000000000000000000000000000000000000000000000000000000008152600401611ddb90614f0d565b60405180910390fd5b611e107f00000000000000000000000000000000000000000000000000000000000000003330846128e2565b80600c60003373ffffffffffffffffffffffffffffffffffffffff1673ffffffffffffffffffffffffffffffffffffffff16815260200190815260200160002054611e5b9190613f84565b600c60003373ffffffffffffffffffffffffffffffffffffffff1673ffffffffffffffffffffffffffffffffffffffff1681526020019081526020016000208190555050565b60086020528060005260406000206000915090508060000160009054906101000a900473ffffffffffffffffffffffffffffffffffffffff16908060010154908060020154908060030154908060040154905085565b600e6020528060005260406000206000915090505481565b600d6020528060005260406000206000915090505481565b7f000000000000000000000000000000000000000000000000000000000000000081565b7f000000000000000000000000000000000000000000000000000000000000000081565b60008111611fb2576040517f08c379a0000000000000000000000000000000000000000000000000000000008152600401611fa990614f0d565b60405180910390fd5b611fde7f00000000000000000000000000000000000000000000000000000000000000003330846128e2565b80600e60003373ffffffffffffffffffffffffffffffffffffffff1673ffffffffffffffffffffffffffffffffffffffff168152602001908152602001600020546120299190613f84565b600e60003373ffffffffffffffffffffffffffffffffffffffff1673ffffffffffffffffffffffffffffffffffffffff1681526020019081526020016000208190555050565b7ff4ec58065cfc6a2c8ef3beb140ad8d5a657958bf8a1ddd9ba948db8c8a1f21aa8383836040516120a293929190614f2d565b60405180910390a16120f57f00000000000000000000000000000000000000000000000000000000000000007f000000000000000000000000000000000000000000000000000000000000000084612a3a565b60006040518061010001604052807f000000000000000000000000000000000000000000000000000000000000000073ffffffffffffffffffffffffffffffffffffffff1681526020017f000000000000000000000000000000000000000000000000000000000000000073ffffffffffffffffffffffffffffffffffffffff168152602001610bb862ffffff1681526020018573ffffffffffffffffffffffffffffffffffffffff168152602001428152602001848152602001838152602001600073ffffffffffffffffffffffffffffffffffffffff16815250905060007f000000000000000000000000000000000000000000000000000000000000000073ffffffffffffffffffffffffffffffffffffffff1663414bf389836040518263ffffffff1660e01b815260040161222e9190615042565b6020604051808303816000875af115801561224d573d6000803e3d6000fd5b505050506040513d601f19601f820116820180604052508101906122719190613fcd565b905083600c60008773ffffffffffffffffffffffffffffffffffffffff1673ffffffffffffffffffffffffffffffffffffffff168152602001908152602001600020546122be9190613ffa565b600c60008773ffffffffffffffffffffffffffffffffffffffff1673ffffffffffffffffffffffffffffffffffffffff1681526020019081526020016000208190555080600d60008773ffffffffffffffffffffffffffffffffffffffff1673ffffffffffffffffffffffffffffffffffffffff1681526020019081526020016000205461234c9190613f84565b600d60008773ffffffffffffffffffffffffffffffffffffffff1673ffffffffffffffffffffffffffffffffffffffff168152602001908152602001600020819055508473ffffffffffffffffffffffffffffffffffffffff167fbdf4670c78c4b5249397eb82e2e0e8ba29705683621ddb1c4742f24827ca807c85836040516123d7929190613f2c565b60405180910390a25050505050565b6000808473ffffffffffffffffffffffffffffffffffffffff1663a9059cbb60e01b858560405160240161241b92919061402e565b604051602081830303815290604052907bffffffffffffffffffffffffffffffffffffffffffffffffffffffff19166020820180517bffffffffffffffffffffffffffffffffffffffffffffffffffffffff8381831617835250505050604051612485919061505e565b6000604051808303816000865af19150503d80600081146124c2576040519150601f19603f3d011682016040523d82523d6000602084013e6124c7565b606091505b50915091508180156124f557506000815114806124f45750808060200190518101906124f39190614083565b5b5b612534576040517f08c379a000000000000000000000000000000000000000000000000000000000815260040161252b906150c1565b60405180910390fd5b5050505050565b600081600001549050919050565b6001816000016000828254019250508190555050565b600080600860008481526020019081526020016000206040518060a00160405290816000820160009054906101000a900473ffffffffffffffffffffffffffffffffffffffff1673ffffffffffffffffffffffffffffffffffffffff1673ffffffffffffffffffffffffffffffffffffffff1681526020016001820154815260200160028201548152602001600382015481526020016004820154815250509050600081602001518260600151426126179190613ffa565b119050600080600c6000856000015173ffffffffffffffffffffffffffffffffffffffff1673ffffffffffffffffffffffffffffffffffffffff1681526020019081526020016000205414905081801561266f575080155b9350505050919050565b606060005b60208160ff161080156126d05750600060f81b838260ff16602081106126a7576126a66150e1565b5b1a60f81b7effffffffffffffffffffffffffffffffffffffffffffffffffffffffffffff191614155b156126e85780806126e090615110565b91505061267e565b60008160ff1667ffffffffffffffff81111561270757612706613987565b5b6040519080825280601f01601f1916602001820160405280156127395781602001600182028036833780820191505090505b509050600091505b60208260ff161080156127935750600060f81b848360ff166020811061276a576127696150e1565b5b1a60f81b7effffffffffffffffffffffffffffffffffffffffffffffffffffffffffffff191614155b1561280a57838260ff16602081106127ae576127ad6150e1565b5b1a60f81b818360ff16815181106127c8576127c76150e1565b5b60200101907effffffffffffffffffffffffffffffffffffffffffffffffffffffffffffff1916908160001a905350818061280290615110565b925050612741565b8092505050919050565b61281c613505565b612824613505565b61283b85858584612b8f909392919063ffffffff16565b9150509392505050565b61285c828460800151612c3f90919063ffffffff16565b612873818460800151612c3f90919063ffffffff16565b505050565b61288f828460800151612c3f90919063ffffffff16565b6128a6818460800151612c6490919063ffffffff16565b505050565b60006128da600460009054906101000a900473ffffffffffffffffffffffffffffffffffffffff168484612d11565b905092915050565b6000808573ffffffffffffffffffffffffffffffffffffffff166323b872dd60e01b86868660405160240161291993929190615139565b604051602081830303815290604052907bffffffffffffffffffffffffffffffffffffffffffffffffffffffff19166020820180517bffffffffffffffffffffffffffffffffffffffffffffffffffffffff8381831617835250505050604051612983919061505e565b6000604051808303816000865af19150503d80600081146129c0576040519150601f19603f3d011682016040523d82523d6000602084013e6129c5565b606091505b50915091508180156129f357506000815114806129f25750808060200190518101906129f19190614083565b5b5b612a32576040517f08c379a0000000000000000000000000000000000000000000000000000000008152600401612a29906151bc565b60405180910390fd5b505050505050565b6000808473ffffffffffffffffffffffffffffffffffffffff1663095ea7b360e01b8585604051602401612a6f92919061402e565b604051602081830303815290604052907bffffffffffffffffffffffffffffffffffffffffffffffffffffffff19166020820180517bffffffffffffffffffffffffffffffffffffffffffffffffffffffff8381831617835250505050604051612ad9919061505e565b6000604051808303816000865af19150503d8060008114612b16576040519150601f19603f3d011682016040523d82523d6000602084013e612b1b565b606091505b5091509150818015612b495750600081511480612b48575080806020019051810190612b479190614083565b5b5b612b88576040517f08c379a0000000000000000000000000000000000000000000000000000000008152600401612b7f90615228565b60405180910390fd5b5050505050565b612b97613505565b612ba78560800151610100612ddd565b508385600001818152505082856020019073ffffffffffffffffffffffffffffffffffffffff16908173ffffffffffffffffffffffffffffffffffffffff16815250508185604001907bffffffffffffffffffffffffffffffffffffffffffffffffffffffff191690817bffffffffffffffffffffffffffffffffffffffffffffffffffffffff191681525050849050949350505050565b612c4c8260038351612e47565b612c5f8183612fcc90919063ffffffff16565b505050565b7fffffffffffffffffffffffffffffffffffffffffffffffff0000000000000000811215612c9b57612c968282612fee565b612d0d565b67ffffffffffffffff811315612cba57612cb58282613065565b612d0c565b60008112612cd357612cce82600083612e47565b612d0b565b612d0a826001837fffffffffffffffffffffffffffffffffffffffffffffffffffffffffffffffff612d059190615248565b612e47565b5b5b5b5050565b6000806005549050600181612d269190613f84565b6005819055506000634042994660e01b60008087600001513089604001518760018c6080015160000151604051602401612d6798979695949392919061529a565b604051602081830303815290604052907bffffffffffffffffffffffffffffffffffffffffffffffffffffffff19166020820180517bffffffffffffffffffffffffffffffffffffffffffffffffffffffff83818316178352505050509050612dd2868386846130b1565b925050509392505050565b612de5613572565b6000602083612df4919061531f565b14612e2057602082612e06919061531f565b6020612e129190613ffa565b82612e1d9190613f84565b91505b81836020018181525050604051808452600081528281016020016040525082905092915050565b60178167ffffffffffffffff1611612e7e57612e788160058460ff16901b60ff16178461324690919063ffffffff16565b50612fc7565b60ff8167ffffffffffffffff1611612ed457612ead601860058460ff16901b178461324690919063ffffffff16565b50612ece8167ffffffffffffffff166001856132669092919063ffffffff16565b50612fc6565b61ffff8167ffffffffffffffff1611612f2b57612f04601960058460ff16901b178461324690919063ffffffff16565b50612f258167ffffffffffffffff166002856132669092919063ffffffff16565b50612fc5565b63ffffffff8167ffffffffffffffff1611612f8457612f5d601a60058460ff16901b178461324690919063ffffffff16565b50612f7e8167ffffffffffffffff166004856132669092919063ffffffff16565b50612fc4565b612fa1601b60058460ff16901b178461324690919063ffffffff16565b50612fc28167ffffffffffffffff166008856132669092919063ffffffff16565b505b5b5b5b505050565b612fd4613572565b612fe683846000015151848551613288565b905092915050565b61300c60036005600660ff16901b178361324690919063ffffffff16565b5061306182827fffffffffffffffffffffffffffffffffffffffffffffffffffffffffffffffff61303d9190615248565b60405160200161304d91906136f7565b604051602081830303815290604052613377565b5050565b61308360026005600660ff16901b178361324690919063ffffffff16565b506130ad828260405160200161309991906136f7565b604051602081830303815290604052613377565b5050565b600030846040516020016130c6929190615379565b604051602081830303815290604052805190602001209050846006600083815260200190815260200160002060006101000a81548173ffffffffffffffffffffffffffffffffffffffff021916908373ffffffffffffffffffffffffffffffffffffffff160217905550807fb5e6e01e79f91267dc17b4e6314d5d4d03593d2ceee0fbb452b750bd70ea5af960405160405180910390a2600360009054906101000a900473ffffffffffffffffffffffffffffffffffffffff1673ffffffffffffffffffffffffffffffffffffffff16634000aea08685856040518463ffffffff1660e01b81526004016131bc939291906153a5565b6020604051808303816000875af11580156131db573d6000803e3d6000fd5b505050506040513d601f19601f820116820180604052508101906131ff9190614083565b61323e576040517f08c379a000000000000000000000000000000000000000000000000000000000815260040161323590615455565b60405180910390fd5b949350505050565b61324e613572565b61325e838460000151518461339c565b905092915050565b61326e613572565b61327f8485600001515185856133f2565b90509392505050565b613290613572565b825182111561329e57600080fd5b846020015182856132af9190613f84565b11156132e4576132e38560026132d4886020015188876132cf9190613f84565b613480565b6132de9190614dbc565b61349c565b5b6000808651805187602083010193508088870111156133035787860182525b60208701925050505b6020841061334a57805182526020826133259190613f84565b91506020816133349190613f84565b90506020846133439190613ffa565b935061330c565b60006001856020036101000a03905080198251168184511681811785525050508692505050949350505050565b6133848260028351612e47565b6133978183612fcc90919063ffffffff16565b505050565b6133a4613572565b836020015183106133ca576133c984600286602001516133c49190614dbc565b61349c565b5b835180516020858301018481538186036133e5576001820183525b5050508390509392505050565b6133fa613572565b8460200151848361340b9190613f84565b11156134335761343285600286856134239190613f84565b61342d9190614dbc565b61349c565b5b600060018361010061344591906155a8565b61344f9190613ffa565b905085518386820101858319825116178152815185880111156134725784870182525b505085915050949350505050565b60008183111561349257829050613496565b8190505b92915050565b6000826000015190506134af8383612ddd565b506134ba8382612fcc565b50505050565b6040518060a00160405280600073ffffffffffffffffffffffffffffffffffffffff168152602001600081526020016000815260200160008152602001600081525090565b6040518060a0016040528060008019168152602001600073ffffffffffffffffffffffffffffffffffffffff16815260200160007bffffffffffffffffffffffffffffffffffffffffffffffffffffffff191681526020016000815260200161356c613572565b81525090565b604051806040016040528060608152602001600081525090565b600073ffffffffffffffffffffffffffffffffffffffff82169050919050565b60006135b78261358c565b9050919050565b6135c7816135ac565b82525050565b60006020820190506135e260008301846135be565b92915050565b600060ff82169050919050565b6135fe816135e8565b82525050565b600060208201905061361960008301846135f5565b92915050565b6000604051905090565b600080fd5b600080fd5b61363c816135ac565b811461364757600080fd5b50565b60008135905061365981613633565b92915050565b6000819050919050565b6136728161365f565b811461367d57600080fd5b50565b60008135905061368f81613669565b92915050565b6000806000606084860312156136ae576136ad613629565b5b60006136bc8682870161364a565b93505060206136cd86828701613680565b92505060406136de86828701613680565b9150509250925092565b6136f18161365f565b82525050565b600060208201905061370c60008301846136e8565b92915050565b6000819050919050565b600061373761373261372d8461358c565b613712565b61358c565b9050919050565b60006137498261371c565b9050919050565b600061375b8261373e565b9050919050565b61376b81613750565b82525050565b60006020820190506137866000830184613762565b92915050565b600080fd5b600080fd5b600080fd5b60008083601f8401126137b1576137b061378c565b5b8235905067ffffffffffffffff8111156137ce576137cd613791565b5b6020830191508360018202830111156137ea576137e9613796565b5b9250929050565b6000806020838503121561380857613807613629565b5b600083013567ffffffffffffffff8111156138265761382561362e565b5b6138328582860161379b565b92509250509250929050565b60006020828403121561385457613853613629565b5b60006138628482850161364a565b91505092915050565b60006138768261373e565b9050919050565b6138868161386b565b82525050565b60006020820190506138a1600083018461387d565b92915050565b60008115159050919050565b6138bc816138a7565b82525050565b600081519050919050565b600082825260208201905092915050565b60005b838110156138fc5780820151818401526020810190506138e1565b60008484015250505050565b6000601f19601f8301169050919050565b6000613924826138c2565b61392e81856138cd565b935061393e8185602086016138de565b61394781613908565b840191505092915050565b600060408201905061396760008301856138b3565b81810360208301526139798184613919565b90509392505050565b600080fd5b7f4e487b7100000000000000000000000000000000000000000000000000000000600052604160045260246000fd5b6139bf82613908565b810181811067ffffffffffffffff821117156139de576139dd613987565b5b80604052505050565b60006139f161361f565b90506139fd82826139b6565b919050565b600067ffffffffffffffff821115613a1d57613a1c613987565b5b613a2682613908565b9050602081019050919050565b82818337600083830152505050565b6000613a55613a5084613a02565b6139e7565b905082815260208101848484011115613a7157613a70613982565b5b613a7c848285613a33565b509392505050565b600082601f830112613a9957613a9861378c565b5b8135613aa9848260208601613a42565b91505092915050565b600063ffffffff82169050919050565b613acb81613ab2565b8114613ad657600080fd5b50565b600081359050613ae881613ac2565b92915050565b60006bffffffffffffffffffffffff82169050919050565b613b0f81613aee565b8114613b1a57600080fd5b50565b600081359050613b2c81613b06565b92915050565b600080600080600060a08688031215613b4e57613b4d613629565b5b600086013567ffffffffffffffff811115613b6c57613b6b61362e565b5b613b7888828901613a84565b9550506020613b8988828901613ad9565b9450506040613b9a88828901613b1d565b9350506060613bab88828901613680565b9250506080613bbc88828901613680565b9150509295509295909350565b600062ffffff82169050919050565b613be181613bc9565b82525050565b6000602082019050613bfc6000830184613bd8565b92915050565b600060208284031215613c1857613c17613629565b5b6000613c2684828501613680565b91505092915050565b6000819050919050565b613c4281613c2f565b82525050565b6000602082019050613c5d6000830184613c39565b92915050565b6000613c6e8261373e565b9050919050565b613c7e81613c63565b82525050565b6000602082019050613c996000830184613c75565b92915050565b613ca881613c2f565b8114613cb357600080fd5b50565b600081359050613cc581613c9f565b92915050565b600060208284031215613ce157613ce0613629565b5b6000613cef84828501613cb6565b91505092915050565b60008060408385031215613d0f57613d0e613629565b5b6000613d1d85828601613cb6565b9250506020613d2e85828601613680565b9150509250929050565b600060a082019050613d4d60008301886135be565b613d5a60208301876136e8565b613d6760408301866136e8565b613d7460608301856136e8565b613d8160808301846136e8565b9695505050505050565b600082825260208201905092915050565b7f5265656e7472616e637947756172643a207265656e7472616e742063616c6c00600082015250565b6000613dd2601f83613d8b565b9150613ddd82613d9c565b602082019050919050565b60006020820190508181036000830152613e0181613dc5565b9050919050565b7f596f75722066756e64696e672062616c616e636520697320302c20796f75206860008201527f617665206e6f7468696e6720746f207769746864726177000000000000000000602082015250565b6000613e64603783613d8b565b9150613e6f82613e08565b604082019050919050565b60006020820190508181036000830152613e9381613e57565b9050919050565b7f596f7572207374616b652062616c616e636520697320302c20796f752068617660008201527f65206e6f7468696e6720746f2077697468647261770000000000000000000000602082015250565b6000613ef6603583613d8b565b9150613f0182613e9a565b604082019050919050565b60006020820190508181036000830152613f2581613ee9565b9050919050565b6000604082019050613f4160008301856136e8565b613f4e60208301846136e8565b9392505050565b7f4e487b7100000000000000000000000000000000000000000000000000000000600052601160045260246000fd5b6000613f8f8261365f565b9150613f9a8361365f565b9250828201905080821115613fb257613fb1613f55565b5b92915050565b600081519050613fc781613669565b92915050565b600060208284031215613fe357613fe2613629565b5b6000613ff184828501613fb8565b91505092915050565b60006140058261365f565b91506140108361365f565b925082820390508181111561402857614027613f55565b5b92915050565b600060408201905061404360008301856135be565b61405060208301846136e8565b9392505050565b614060816138a7565b811461406b57600080fd5b50565b60008151905061407d81614057565b92915050565b60006020828403121561409957614098613629565b5b60006140a78482850161406e565b91505092915050565b6000815190506140bf81613c9f565b92915050565b6000602082840312156140db576140da613629565b5b60006140e9848285016140b0565b91505092915050565b7f6d696e696d756d2066756e64696e67416d6f756e742069732035204c494e4b00600082015250565b6000614128601f83613d8b565b9150614133826140f2565b602082019050919050565b600060208201905081810360008301526141578161411b565b9050919050565b7f6d696e696d756d206f72646572496e74657276616c206973203630207365636f60008201527f6e64730000000000000000000000000000000000000000000000000000000000602082015250565b60006141ba602383613d8b565b91506141c58261415e565b604082019050919050565b600060208201905081810360008301526141e9816141ad565b9050919050565b7f6d696e696d756d206f7264657253697a6520697320302c30303031207374616b60008201527f6564546f6b656e00000000000000000000000000000000000000000000000000602082015250565b600061424c602783613d8b565b9150614257826141f0565b604082019050919050565b6000602082019050818103600083015261427b8161423f565b9050919050565b7f796f75722066756e64696e672062616c616e6365206973203c206f6620796f7560008201527f722066756e64696e67416d6f756e740000000000000000000000000000000000602082015250565b60006142de602f83613d8b565b91506142e982614282565b604082019050919050565b6000602082019050818103600083015261430d816142d1565b9050919050565b600080fd5b60008151905061432881613ac2565b92915050565b60008151905061433d81613b06565b92915050565b60006080828403121561435957614358614314565b5b61436360806139e7565b9050600061437384828501614319565b60008301525060206143878482850161432e565b602083015250604061439b84828501613fb8565b60408301525060606143af84828501613fb8565b60608301525092915050565b6143c481613bc9565b81146143cf57600080fd5b50565b6000815190506143e1816143bb565b92915050565b600061ffff82169050919050565b6143fe816143e7565b811461440957600080fd5b50565b60008151905061441b816143f5565b92915050565b60008151905061443081613633565b92915050565b6000610180828403121561444d5761444c614314565b5b6144586101806139e7565b9050600061446884828501614319565b600083015250602061447c84828501614319565b6020830152506040614490848285016143d2565b60408301525060606144a484828501614319565b60608301525060806144b8848285016143d2565b60808301525060a06144cc8482850161440c565b60a08301525060c06144e08482850161432e565b60c08301525060e06144f484828501614319565b60e08301525061010061450984828501613fb8565b6101008301525061012061451f84828501613fb8565b6101208301525061014061453584828501614421565b6101408301525061016061454b84828501614421565b6101608301525092915050565b600067ffffffffffffffff82111561457357614572613987565b5b602082029050602081019050919050565b600061459761459284614558565b6139e7565b905080838252602082019050602084028301858111156145ba576145b9613796565b5b835b818110156145e357806145cf8882614421565b8452602084019350506020810190506145bc565b5050509392505050565b600082601f8301126146025761460161378c565b5b8151614612848260208601614584565b91505092915050565b6000806000610220848603121561463557614634613629565b5b600061464386828701614343565b935050608061465486828701614436565b92505061020084015167ffffffffffffffff8111156146765761467561362e565b5b614682868287016145ed565b9150509250925092565b6000819050919050565b6146a76146a28261365f565b61468c565b82525050565b60006146b98284614696565b60208201915081905092915050565b600081519050919050565b60006146de826146c8565b6146e88185613d8b565b93506146f88185602086016138de565b61470181613908565b840191505092915050565b7f3078000000000000000000000000000000000000000000000000000000000000600082015250565b6000614742600283613d8b565b915061474d8261470c565b602082019050919050565b61476181613ab2565b82525050565b61477081613aee565b82525050565b6000819050919050565b600061479b61479661479184614776565b613712565b6135e8565b9050919050565b6147ab81614780565b82525050565b60006101208201905081810360008301526147cc818b6146d3565b905081810360208301526147df81614735565b90506147ee604083018a6135be565b6147fb6060830189614758565b61480860808301886135be565b81810360a083015261481a8187613919565b905061482960c0830186614767565b61483660e08301856147a2565b6148446101008301846135be565b9998505050505050505050565b60007fffffffff0000000000000000000000000000000000000000000000000000000082169050919050565b6000819050919050565b61489861489382614851565b61487d565b82525050565b600081905092915050565b60006148b4826138c2565b6148be818561489e565b93506148ce8185602086016138de565b80840191505092915050565b60006148e68285614887565b6004820191506148f682846148a9565b91508190509392505050565b600061491d61491861491384613aee565b613712565b61365f565b9050919050565b61492d81614902565b82525050565b600060608201905061494860008301866135be565b6149556020830185614924565b81810360408301526149678184613919565b9050949350505050565b6000819050919050565b61498c61498782613c2f565b614971565b82525050565b60008160601b9050919050565b60006149aa82614992565b9050919050565b60006149bc8261499f565b9050919050565b6149d46149cf826135ac565b6149b1565b82525050565b60008160e01b9050919050565b60006149f2826149da565b9050919050565b614a0a614a0582613ab2565b6149e7565b82525050565b6000614a1c828661497b565b602082019150614a2c82856149c3565b601482019150614a3c82846149f9565b600482019150819050949350505050565b600081905092915050565b7f68747470733a2f2f6d696e2d6170692e63727970746f636f6d706172652e636f60008201527f6d2f646174612f70726963656d756c746966756c6c3f6673796d733d00000000602082015250565b6000614ab4603c83614a4d565b9150614abf82614a58565b603c82019050919050565b6000614ad5826146c8565b614adf8185614a4d565b9350614aef8185602086016138de565b80840191505092915050565b7f267473796d733d00000000000000000000000000000000000000000000000000600082015250565b6000614b31600783614a4d565b9150614b3c82614afb565b600782019050919050565b7f266578747261506172616d733d57616c6c2d4554480000000000000000000000600082015250565b6000614b7d601583614a4d565b9150614b8882614b47565b601582019050919050565b6000614b9e82614aa7565b9150614baa8285614aca565b9150614bb582614b24565b9150614bc18284614aca565b9150614bcc82614b70565b91508190509392505050565b7f5241572c00000000000000000000000000000000000000000000000000000000600082015250565b6000614c0e600483614a4d565b9150614c1982614bd8565b600482019050919050565b7f2c00000000000000000000000000000000000000000000000000000000000000600082015250565b6000614c5a600183614a4d565b9150614c6582614c24565b600182019050919050565b7f2c50524943450000000000000000000000000000000000000000000000000000600082015250565b6000614ca6600683614a4d565b9150614cb182614c70565b600682019050919050565b6000614cc782614c01565b9150614cd38285614aca565b9150614cde82614c4d565b9150614cea8284614aca565b9150614cf582614c99565b91508190509392505050565b7f536f75726365206d75737420626520746865206f7261636c65206f662074686560008201527f2072657175657374000000000000000000000000000000000000000000000000602082015250565b6000614d5d602883613d8b565b9150614d6882614d01565b604082019050919050565b60006020820190508181036000830152614d8c81614d50565b9050919050565b6000604082019050614da86000830185613c39565b614db560208301846136e8565b9392505050565b6000614dc78261365f565b9150614dd28361365f565b9250828202614de08161365f565b91508282048414831517614df757614df6613f55565b5b5092915050565b7f4e487b7100000000000000000000000000000000000000000000000000000000600052601260045260246000fd5b6000614e388261365f565b9150614e438361365f565b925082614e5357614e52614dfe565b5b828204905092915050565b6000819050919050565b614e7181614e5e565b8114614e7c57600080fd5b50565b600081519050614e8e81614e68565b92915050565b600060208284031215614eaa57614ea9613629565b5b6000614eb884828501614e7f565b91505092915050565b7f616d6f756e742073686f756c64206265203e2030000000000000000000000000600082015250565b6000614ef7601483613d8b565b9150614f0282614ec1565b602082019050919050565b60006020820190508181036000830152614f2681614eea565b9050919050565b6000606082019050614f4260008301866135be565b614f4f60208301856136e8565b614f5c60408301846136e8565b949350505050565b614f6d816135ac565b82525050565b614f7c81613bc9565b82525050565b614f8b8161365f565b82525050565b614f9a8161358c565b82525050565b61010082016000820151614fb76000850182614f64565b506020820151614fca6020850182614f64565b506040820151614fdd6040850182614f73565b506060820151614ff06060850182614f64565b5060808201516150036080850182614f82565b5060a082015161501660a0850182614f82565b5060c082015161502960c0850182614f82565b5060e082015161503c60e0850182614f91565b50505050565b6000610100820190506150586000830184614fa0565b92915050565b600061506a82846148a9565b915081905092915050565b7f5354000000000000000000000000000000000000000000000000000000000000600082015250565b60006150ab600283613d8b565b91506150b682615075565b602082019050919050565b600060208201905081810360008301526150da8161509e565b9050919050565b7f4e487b7100000000000000000000000000000000000000000000000000000000600052603260045260246000fd5b600061511b826135e8565b915060ff820361512e5761512d613f55565b5b600182019050919050565b600060608201905061514e60008301866135be565b61515b60208301856135be565b61516860408301846136e8565b949350505050565b7f5354460000000000000000000000000000000000000000000000000000000000600082015250565b60006151a6600383613d8b565b91506151b182615170565b602082019050919050565b600060208201905081810360008301526151d581615199565b9050919050565b7f5341000000000000000000000000000000000000000000000000000000000000600082015250565b6000615212600283613d8b565b915061521d826151dc565b602082019050919050565b6000602082019050818103600083015261524181615205565b9050919050565b600061525382614e5e565b915061525e83614e5e565b925082820390508181126000841216828213600085121516171561528557615284613f55565b5b92915050565b61529481614851565b82525050565b6000610100820190506152b0600083018b6135be565b6152bd602083018a6136e8565b6152ca6040830189613c39565b6152d760608301886135be565b6152e4608083018761528b565b6152f160a08301866136e8565b6152fe60c08301856136e8565b81810360e08301526153108184613919565b90509998505050505050505050565b600061532a8261365f565b91506153358361365f565b92508261534557615344614dfe565b5b828206905092915050565b600061535b8261373e565b9050919050565b61537361536e82615350565b6149b1565b82525050565b60006153858285615362565b6014820191506153958284614696565b6020820191508190509392505050565b60006060820190506153ba60008301866135be565b6153c760208301856136e8565b81810360408301526153d98184613919565b9050949350505050565b7f756e61626c6520746f207472616e73666572416e6443616c6c20746f206f726160008201527f636c650000000000000000000000000000000000000000000000000000000000602082015250565b600061543f602383613d8b565b915061544a826153e3565b604082019050919050565b6000602082019050818103600083015261546e81615432565b9050919050565b60008160011c9050919050565b6000808291508390505b60018511156154cc578086048111156154a8576154a7613f55565b5b60018516156154b75780820291505b80810290506154c585615475565b945061548c565b94509492505050565b6000826154e557600190506155a1565b816154f357600090506155a1565b8160018114615509576002811461551357615542565b60019150506155a1565b60ff84111561552557615524613f55565b5b8360020a91508482111561553c5761553b613f55565b5b506155a1565b5060208310610133831016604e8410600b84101617156155775782820a90508381111561557257615571613f55565b5b6155a1565b6155848484846001615482565b9250905081840481111561559b5761559a613f55565b5b81810290505b9392505050565b60006155b38261365f565b91506155be8361365f565b92506155eb7fffffffffffffffffffffffffffffffffffffffffffffffffffffffffffffffff84846154d5565b90509291505056fea2646970667358221220a863af86ef587625a1d108f8cf418dc1600bc16e86e2d71e143334452901f0da64736f6c63430008110033",
  "devdoc": {
    "kind": "dev",
    "methods": {},
    "version": 1
  },
  "userdoc": {
    "kind": "user",
    "methods": {},
    "version": 1
  },
  "storageLayout": {
    "storage": [
      {
        "astId": 2557,
        "contract": "contracts/TradingBotV3.sol:TradingBotV3",
        "label": "_status",
        "offset": 0,
        "slot": "0",
        "type": "t_uint256"
      },
      {
        "astId": 319,
        "contract": "contracts/TradingBotV3.sol:TradingBotV3",
        "label": "s_ens",
        "offset": 0,
        "slot": "1",
        "type": "t_contract(ENSInterface)1329"
      },
      {
        "astId": 321,
        "contract": "contracts/TradingBotV3.sol:TradingBotV3",
        "label": "s_ensNode",
        "offset": 0,
        "slot": "2",
        "type": "t_bytes32"
      },
      {
        "astId": 324,
        "contract": "contracts/TradingBotV3.sol:TradingBotV3",
        "label": "s_link",
        "offset": 0,
        "slot": "3",
        "type": "t_contract(LinkTokenInterface)1424"
      },
      {
        "astId": 327,
        "contract": "contracts/TradingBotV3.sol:TradingBotV3",
        "label": "s_oracle",
        "offset": 0,
        "slot": "4",
        "type": "t_contract(OperatorInterface)1504"
      },
      {
        "astId": 330,
        "contract": "contracts/TradingBotV3.sol:TradingBotV3",
        "label": "s_requestCount",
        "offset": 0,
        "slot": "5",
        "type": "t_uint256"
      },
      {
        "astId": 334,
        "contract": "contracts/TradingBotV3.sol:TradingBotV3",
        "label": "s_pendingRequests",
        "offset": 0,
        "slot": "6",
        "type": "t_mapping(t_bytes32,t_address)"
      },
      {
        "astId": 4046,
        "contract": "contracts/TradingBotV3.sol:TradingBotV3",
        "label": "_botIdCounter",
        "offset": 0,
        "slot": "7",
        "type": "t_struct(Counter)3303_storage"
      },
      {
        "astId": 4051,
        "contract": "contracts/TradingBotV3.sol:TradingBotV3",
        "label": "botIdToBotObj",
        "offset": 0,
        "slot": "8",
        "type": "t_mapping(t_uint256,t_struct(BotObj)3930_storage)"
      },
      {
        "astId": 4055,
        "contract": "contracts/TradingBotV3.sol:TradingBotV3",
        "label": "botIdToUpkeepId",
        "offset": 0,
        "slot": "9",
        "type": "t_mapping(t_uint256,t_uint256)"
      },
      {
        "astId": 4059,
        "contract": "contracts/TradingBotV3.sol:TradingBotV3",
        "label": "requestIdToBotId",
        "offset": 0,
        "slot": "10",
        "type": "t_mapping(t_bytes32,t_uint256)"
      },
      {
        "astId": 4072,
        "contract": "contracts/TradingBotV3.sol:TradingBotV3",
        "label": "registerSig",
        "offset": 0,
        "slot": "11",
        "type": "t_bytes4"
      },
      {
        "astId": 4087,
        "contract": "contracts/TradingBotV3.sol:TradingBotV3",
        "label": "stakingBalance",
        "offset": 0,
        "slot": "12",
        "type": "t_mapping(t_address,t_uint256)"
      },
      {
        "astId": 4091,
        "contract": "contracts/TradingBotV3.sol:TradingBotV3",
        "label": "tradingBalance",
        "offset": 0,
        "slot": "13",
        "type": "t_mapping(t_address,t_uint256)"
      },
      {
        "astId": 4095,
        "contract": "contracts/TradingBotV3.sol:TradingBotV3",
        "label": "fundingBalance",
        "offset": 0,
        "slot": "14",
        "type": "t_mapping(t_address,t_uint256)"
      },
      {
        "astId": 4101,
        "contract": "contracts/TradingBotV3.sol:TradingBotV3",
        "label": "i_truflationOracle",
        "offset": 0,
        "slot": "15",
        "type": "t_address"
      }
    ],
    "types": {
      "t_address": {
        "encoding": "inplace",
        "label": "address",
        "numberOfBytes": "20"
      },
      "t_bytes32": {
        "encoding": "inplace",
        "label": "bytes32",
        "numberOfBytes": "32"
      },
      "t_bytes4": {
        "encoding": "inplace",
        "label": "bytes4",
        "numberOfBytes": "4"
      },
      "t_contract(ENSInterface)1329": {
        "encoding": "inplace",
        "label": "contract ENSInterface",
        "numberOfBytes": "20"
      },
      "t_contract(LinkTokenInterface)1424": {
        "encoding": "inplace",
        "label": "contract LinkTokenInterface",
        "numberOfBytes": "20"
      },
      "t_contract(OperatorInterface)1504": {
        "encoding": "inplace",
        "label": "contract OperatorInterface",
        "numberOfBytes": "20"
      },
      "t_mapping(t_address,t_uint256)": {
        "encoding": "mapping",
        "key": "t_address",
        "label": "mapping(address => uint256)",
        "numberOfBytes": "32",
        "value": "t_uint256"
      },
      "t_mapping(t_bytes32,t_address)": {
        "encoding": "mapping",
        "key": "t_bytes32",
        "label": "mapping(bytes32 => address)",
        "numberOfBytes": "32",
        "value": "t_address"
      },
      "t_mapping(t_bytes32,t_uint256)": {
        "encoding": "mapping",
        "key": "t_bytes32",
        "label": "mapping(bytes32 => uint256)",
        "numberOfBytes": "32",
        "value": "t_uint256"
      },
      "t_mapping(t_uint256,t_struct(BotObj)3930_storage)": {
        "encoding": "mapping",
        "key": "t_uint256",
        "label": "mapping(uint256 => struct BotObj)",
        "numberOfBytes": "32",
        "value": "t_struct(BotObj)3930_storage"
      },
      "t_mapping(t_uint256,t_uint256)": {
        "encoding": "mapping",
        "key": "t_uint256",
        "label": "mapping(uint256 => uint256)",
        "numberOfBytes": "32",
        "value": "t_uint256"
      },
      "t_struct(BotObj)3930_storage": {
        "encoding": "inplace",
        "label": "struct BotObj",
        "members": [
          {
            "astId": 3921,
            "contract": "contracts/TradingBotV3.sol:TradingBotV3",
            "label": "owner",
            "offset": 0,
            "slot": "0",
            "type": "t_address"
          },
          {
            "astId": 3923,
            "contract": "contracts/TradingBotV3.sol:TradingBotV3",
            "label": "orderInterval",
            "offset": 0,
            "slot": "1",
            "type": "t_uint256"
          },
          {
            "astId": 3925,
            "contract": "contracts/TradingBotV3.sol:TradingBotV3",
            "label": "orderSize",
            "offset": 0,
            "slot": "2",
            "type": "t_uint256"
          },
          {
            "astId": 3927,
            "contract": "contracts/TradingBotV3.sol:TradingBotV3",
            "label": "lastTimeStamp",
            "offset": 0,
            "slot": "3",
            "type": "t_uint256"
          },
          {
            "astId": 3929,
            "contract": "contracts/TradingBotV3.sol:TradingBotV3",
            "label": "counter",
            "offset": 0,
            "slot": "4",
            "type": "t_uint256"
          }
        ],
        "numberOfBytes": "160"
      },
      "t_struct(Counter)3303_storage": {
        "encoding": "inplace",
        "label": "struct Counters.Counter",
        "members": [
          {
            "astId": 3302,
            "contract": "contracts/TradingBotV3.sol:TradingBotV3",
            "label": "_value",
            "offset": 0,
            "slot": "0",
            "type": "t_uint256"
          }
        ],
        "numberOfBytes": "32"
      },
      "t_uint256": {
        "encoding": "inplace",
        "label": "uint256",
        "numberOfBytes": "32"
      }
    }
  }
}